{
	"data": {
		"bytecode": {
			"linkReferences": {},
			"object": "608060405234801561001057600080fd5b50610180806100206000396000f3fe608060405234801561001057600080fd5b506004361061002b5760003560e01c80634852156c14610030575b600080fd5b61004a600480360381019061004591906100b5565b61004c565b005b3373ffffffffffffffffffffffffffffffffffffffff167f8f598b22558f246d8326928a657c22b0c284a298cc4aaa2e0e2c0d119f17687c8383604051610094929190610100565b60405180910390a25050565b6000813590506100af81610133565b92915050565b600080604083850312156100c857600080fd5b60006100d6858286016100a0565b92505060206100e7858286016100a0565b9150509250929050565b6100fa81610129565b82525050565b600060408201905061011560008301856100f1565b61012260208301846100f1565b9392505050565b6000819050919050565b61013c81610129565b811461014757600080fd5b5056fea2646970667358221220aaa863d2fb465a776bfa18bea613a1516937c71b54ae6c966013a7943bb4e5c564736f6c63430008000033",
			"opcodes": "PUSH1 0x80 PUSH1 0x40 MSTORE CALLVALUE DUP1 ISZERO PUSH2 0x10 JUMPI PUSH1 0x0 DUP1 REVERT JUMPDEST POP PUSH2 0x180 DUP1 PUSH2 0x20 PUSH1 0x0 CODECOPY PUSH1 0x0 RETURN INVALID PUSH1 0x80 PUSH1 0x40 MSTORE CALLVALUE DUP1 ISZERO PUSH2 0x10 JUMPI PUSH1 0x0 DUP1 REVERT JUMPDEST POP PUSH1 0x4 CALLDATASIZE LT PUSH2 0x2B JUMPI PUSH1 0x0 CALLDATALOAD PUSH1 0xE0 SHR DUP1 PUSH4 0x4852156C EQ PUSH2 0x30 JUMPI JUMPDEST PUSH1 0x0 DUP1 REVERT JUMPDEST PUSH2 0x4A PUSH1 0x4 DUP1 CALLDATASIZE SUB DUP2 ADD SWAP1 PUSH2 0x45 SWAP2 SWAP1 PUSH2 0xB5 JUMP JUMPDEST PUSH2 0x4C JUMP JUMPDEST STOP JUMPDEST CALLER PUSH20 0xFFFFFFFFFFFFFFFFFFFFFFFFFFFFFFFFFFFFFFFF AND PUSH32 0x8F598B22558F246D8326928A657C22B0C284A298CC4AAA2E0E2C0D119F17687C DUP4 DUP4 PUSH1 0x40 MLOAD PUSH2 0x94 SWAP3 SWAP2 SWAP1 PUSH2 0x100 JUMP JUMPDEST PUSH1 0x40 MLOAD DUP1 SWAP2 SUB SWAP1 LOG2 POP POP JUMP JUMPDEST PUSH1 0x0 DUP2 CALLDATALOAD SWAP1 POP PUSH2 0xAF DUP2 PUSH2 0x133 JUMP JUMPDEST SWAP3 SWAP2 POP POP JUMP JUMPDEST PUSH1 0x0 DUP1 PUSH1 0x40 DUP4 DUP6 SUB SLT ISZERO PUSH2 0xC8 JUMPI PUSH1 0x0 DUP1 REVERT JUMPDEST PUSH1 0x0 PUSH2 0xD6 DUP6 DUP3 DUP7 ADD PUSH2 0xA0 JUMP JUMPDEST SWAP3 POP POP PUSH1 0x20 PUSH2 0xE7 DUP6 DUP3 DUP7 ADD PUSH2 0xA0 JUMP JUMPDEST SWAP2 POP POP SWAP3 POP SWAP3 SWAP1 POP JUMP JUMPDEST PUSH2 0xFA DUP2 PUSH2 0x129 JUMP JUMPDEST DUP3 MSTORE POP POP JUMP JUMPDEST PUSH1 0x0 PUSH1 0x40 DUP3 ADD SWAP1 POP PUSH2 0x115 PUSH1 0x0 DUP4 ADD DUP6 PUSH2 0xF1 JUMP JUMPDEST PUSH2 0x122 PUSH1 0x20 DUP4 ADD DUP5 PUSH2 0xF1 JUMP JUMPDEST SWAP4 SWAP3 POP POP POP JUMP JUMPDEST PUSH1 0x0 DUP2 SWAP1 POP SWAP2 SWAP1 POP JUMP JUMPDEST PUSH2 0x13C DUP2 PUSH2 0x129 JUMP JUMPDEST DUP2 EQ PUSH2 0x147 JUMPI PUSH1 0x0 DUP1 REVERT JUMPDEST POP JUMP INVALID LOG2 PUSH5 0x6970667358 0x22 SLT KECCAK256 0xAA 0xA8 PUSH4 0xD2FB465A PUSH24 0x6BFA18BEA613A1516937C71B54AE6C966013A7943BB4E5C5 PUSH5 0x736F6C6343 STOP ADDMOD STOP STOP CALLER "
		},
		"gasEstimates": {
			"creation": {
				"codeDepositCost": "76800",
				"executionCost": "123",
				"totalCost": "76923"
			},
			"external": {
				"activateBoost(uint256,uint256)": "infinite"
			}
		},
		"methodIdentifiers": {
			"activateBoost(uint256,uint256)": "4852156c"
		}
	},
	"abi": [
		{
			"anonymous": false,
			"inputs": [
				{
					"indexed": true,
					"internalType": "address",
					"name": "user",
					"type": "address"
				},
				{
					"indexed": false,
					"internalType": "uint256",
					"name": "producerIndex",
					"type": "uint256"
				},
				{
					"indexed": false,
					"internalType": "uint256",
					"name": "boostAmount",
					"type": "uint256"
				}
			],
			"name": "BoostActivated",
			"type": "event"
		},
		{
			"inputs": [
				{
					"internalType": "uint256",
					"name": "producerIndex",
					"type": "uint256"
				},
				{
					"internalType": "uint256",
					"name": "boostAmount",
					"type": "uint256"
				}
			],
			"name": "activateBoost",
			"outputs": [],
			"stateMutability": "nonpayable",
			"type": "function"
		}
	]
}