{
	"BTTC_loadsave.sol": {
		"IdleTronProgress": {
			"abi": [
				{
					"anonymous": false,
					"inputs": [
						{
							"indexed": false,
							"internalType": "address",
							"name": "user",
							"type": "address"
						},
						{
							"indexed": false,
							"internalType": "uint256",
							"name": "totalCoins",
							"type": "uint256"
						},
						{
							"indexed": false,
							"internalType": "uint256[10]",
							"name": "producerAmounts",
							"type": "uint256[10]"
						},
						{
							"indexed": false,
							"internalType": "uint256[10]",
							"name": "producerCosts",
							"type": "uint256[10]"
						},
						{
							"indexed": false,
							"internalType": "uint256[10]",
							"name": "producerRevenues",
							"type": "uint256[10]"
						},
						{
							"indexed": false,
							"internalType": "bool[10]",
							"name": "managerStatuses",
							"type": "bool[10]"
						}
					],
					"name": "UserProgressUpdated",
					"type": "event"
				},
				{
					"inputs": [],
					"name": "loadProgress",
					"outputs": [
						{
							"internalType": "uint256",
							"name": "totalCoins",
							"type": "uint256"
						},
						{
							"internalType": "uint256",
							"name": "coinsPerSecond",
							"type": "uint256"
						},
						{
							"internalType": "uint256[10]",
							"name": "producerAmounts",
							"type": "uint256[10]"
						},
						{
							"internalType": "uint256[10]",
							"name": "producerCosts",
							"type": "uint256[10]"
						},
						{
							"internalType": "uint256[10]",
							"name": "producerRevenues",
							"type": "uint256[10]"
						},
						{
							"internalType": "bool[10]",
							"name": "managerStatuses",
							"type": "bool[10]"
						}
					],
					"stateMutability": "view",
					"type": "function"
				},
				{
					"inputs": [
						{
							"internalType": "uint256",
							"name": "_totalCoins",
							"type": "uint256"
						},
						{
							"internalType": "uint256",
							"name": "_coinsPerSecond",
							"type": "uint256"
						},
						{
							"internalType": "uint256[10]",
							"name": "_producerAmounts",
							"type": "uint256[10]"
						},
						{
							"internalType": "uint256[10]",
							"name": "_producerCosts",
							"type": "uint256[10]"
						},
						{
							"internalType": "uint256[10]",
							"name": "_producerRevenues",
							"type": "uint256[10]"
						},
						{
							"internalType": "bool[10]",
							"name": "_managerStatuses",
							"type": "bool[10]"
						}
					],
					"name": "saveProgress",
					"outputs": [],
					"stateMutability": "nonpayable",
					"type": "function"
				},
				{
					"inputs": [
						{
							"internalType": "address",
							"name": "",
							"type": "address"
						}
					],
					"name": "users",
					"outputs": [
						{
							"internalType": "uint256",
							"name": "totalCoins",
							"type": "uint256"
						},
						{
							"internalType": "uint256",
							"name": "coinsPerSecond",
							"type": "uint256"
						}
					],
					"stateMutability": "view",
					"type": "function"
				}
			],
			"devdoc": {
				"kind": "dev",
				"methods": {},
				"version": 1
			},
			"evm": {
				"assembly": "    /* \"BTTC_loadsave.sol\":60:2498  contract IdleTronProgress {\r... */\n  mstore(0x40, 0x80)\n  callvalue\n  dup1\n  iszero\n  tag_1\n  jumpi\n  0x00\n  dup1\n  revert\ntag_1:\n  pop\n  dataSize(sub_0)\n  dup1\n  dataOffset(sub_0)\n  0x00\n  codecopy\n  0x00\n  return\nstop\n\nsub_0: assembly {\n        /* \"BTTC_loadsave.sol\":60:2498  contract IdleTronProgress {\r... */\n      mstore(0x40, 0x80)\n      callvalue\n      dup1\n      iszero\n      tag_1\n      jumpi\n      0x00\n      dup1\n      revert\n    tag_1:\n      pop\n      jumpi(tag_2, lt(calldatasize, 0x04))\n      shr(0xe0, calldataload(0x00))\n      dup1\n      0x0ad3ad58\n      eq\n      tag_3\n      jumpi\n      dup1\n      0xa87430ba\n      eq\n      tag_4\n      jumpi\n      dup1\n      0xd8ac0ac0\n      eq\n      tag_5\n      jumpi\n    tag_2:\n      0x00\n      dup1\n      revert\n        /* \"BTTC_loadsave.sol\":1885:2495  function loadProgress() public view returns (\r... */\n    tag_3:\n      tag_6\n      tag_7\n      jump\t// in\n    tag_6:\n      mload(0x40)\n      tag_8\n      swap7\n      swap6\n      swap5\n      swap4\n      swap3\n      swap2\n      swap1\n      tag_9\n      jump\t// in\n    tag_8:\n      mload(0x40)\n      dup1\n      swap2\n      sub\n      swap1\n      return\n        /* \"BTTC_loadsave.sol\":534:571  mapping(address => User) public users */\n    tag_4:\n      tag_10\n      0x04\n      dup1\n      calldatasize\n      sub\n      dup2\n      add\n      swap1\n      tag_11\n      swap2\n      swap1\n      tag_12\n      jump\t// in\n    tag_11:\n      tag_13\n      jump\t// in\n    tag_10:\n      mload(0x40)\n      tag_14\n      swap3\n      swap2\n      swap1\n      tag_15\n      jump\t// in\n    tag_14:\n      mload(0x40)\n      dup1\n      swap2\n      sub\n      swap1\n      return\n        /* \"BTTC_loadsave.sol\":876:1838  function saveProgress(\r... */\n    tag_5:\n      tag_16\n      0x04\n      dup1\n      calldatasize\n      sub\n      dup2\n      add\n      swap1\n      tag_17\n      swap2\n      swap1\n      tag_18\n      jump\t// in\n    tag_17:\n      tag_19\n      jump\t// in\n    tag_16:\n      stop\n        /* \"BTTC_loadsave.sol\":1885:2495  function loadProgress() public view returns (\r... */\n    tag_7:\n        /* \"BTTC_loadsave.sol\":1940:1958  uint256 totalCoins */\n      0x00\n        /* \"BTTC_loadsave.sol\":1969:1991  uint256 coinsPerSecond */\n      dup1\n        /* \"BTTC_loadsave.sol\":2002:2036  uint256[10] memory producerAmounts */\n      tag_20\n      tag_21\n      jump\t// in\n    tag_20:\n        /* \"BTTC_loadsave.sol\":2047:2079  uint256[10] memory producerCosts */\n      tag_22\n      tag_21\n      jump\t// in\n    tag_22:\n        /* \"BTTC_loadsave.sol\":2090:2125  uint256[10] memory producerRevenues */\n      tag_23\n      tag_21\n      jump\t// in\n    tag_23:\n        /* \"BTTC_loadsave.sol\":2136:2167  bool[10] memory managerStatuses */\n      tag_24\n      tag_25\n      jump\t// in\n    tag_24:\n        /* \"BTTC_loadsave.sol\":2186:2203  User storage user */\n      0x00\n        /* \"BTTC_loadsave.sol\":2206:2211  users */\n      dup1\n        /* \"BTTC_loadsave.sol\":2206:2223  users[msg.sender] */\n      0x00\n        /* \"BTTC_loadsave.sol\":2212:2222  msg.sender */\n      caller\n        /* \"BTTC_loadsave.sol\":2206:2223  users[msg.sender] */\n      0xffffffffffffffffffffffffffffffffffffffff\n      and\n      0xffffffffffffffffffffffffffffffffffffffff\n      and\n      dup2\n      mstore\n      0x20\n      add\n      swap1\n      dup2\n      mstore\n      0x20\n      add\n      0x00\n      keccak256\n        /* \"BTTC_loadsave.sol\":2186:2223  User storage user = users[msg.sender] */\n      swap1\n      pop\n        /* \"BTTC_loadsave.sol\":2288:2292  user */\n      dup1\n        /* \"BTTC_loadsave.sol\":2288:2303  user.totalCoins */\n      0x00\n      add\n      sload\n        /* \"BTTC_loadsave.sol\":2318:2322  user */\n      dup2\n        /* \"BTTC_loadsave.sol\":2318:2337  user.coinsPerSecond */\n      0x01\n      add\n      sload\n        /* \"BTTC_loadsave.sol\":2352:2356  user */\n      dup3\n        /* \"BTTC_loadsave.sol\":2352:2372  user.producerAmounts */\n      0x02\n      add\n        /* \"BTTC_loadsave.sol\":2387:2391  user */\n      dup4\n        /* \"BTTC_loadsave.sol\":2387:2405  user.producerCosts */\n      0x0c\n      add\n        /* \"BTTC_loadsave.sol\":2420:2424  user */\n      dup5\n        /* \"BTTC_loadsave.sol\":2420:2441  user.producerRevenues */\n      0x16\n      add\n        /* \"BTTC_loadsave.sol\":2456:2460  user */\n      dup6\n        /* \"BTTC_loadsave.sol\":2456:2476  user.managerStatuses */\n      0x20\n      add\n        /* \"BTTC_loadsave.sol\":2266:2487  return (\r... */\n      dup4\n      0x0a\n      dup1\n      0x20\n      mul\n      mload(0x40)\n      swap1\n      dup2\n      add\n      0x40\n      mstore\n      dup1\n      swap3\n      swap2\n      swap1\n      dup3\n      0x0a\n      dup1\n      iszero\n      tag_27\n      jumpi\n      0x20\n      mul\n      dup3\n      add\n      swap2\n    tag_28:\n      dup2\n      sload\n      dup2\n      mstore\n      0x20\n      add\n      swap1\n      0x01\n      add\n      swap1\n      dup1\n      dup4\n      gt\n      tag_28\n      jumpi\n    tag_27:\n      pop\n      pop\n      pop\n      pop\n      pop\n      swap4\n      pop\n      dup3\n      0x0a\n      dup1\n      0x20\n      mul\n      mload(0x40)\n      swap1\n      dup2\n      add\n      0x40\n      mstore\n      dup1\n      swap3\n      swap2\n      swap1\n      dup3\n      0x0a\n      dup1\n      iszero\n      tag_29\n      jumpi\n      0x20\n      mul\n      dup3\n      add\n      swap2\n    tag_30:\n      dup2\n      sload\n      dup2\n      mstore\n      0x20\n      add\n      swap1\n      0x01\n      add\n      swap1\n      dup1\n      dup4\n      gt\n      tag_30\n      jumpi\n    tag_29:\n      pop\n      pop\n      pop\n      pop\n      pop\n      swap3\n      pop\n      dup2\n      0x0a\n      dup1\n      0x20\n      mul\n      mload(0x40)\n      swap1\n      dup2\n      add\n      0x40\n      mstore\n      dup1\n      swap3\n      swap2\n      swap1\n      dup3\n      0x0a\n      dup1\n      iszero\n      tag_31\n      jumpi\n      0x20\n      mul\n      dup3\n      add\n      swap2\n    tag_32:\n      dup2\n      sload\n      dup2\n      mstore\n      0x20\n      add\n      swap1\n      0x01\n      add\n      swap1\n      dup1\n      dup4\n      gt\n      tag_32\n      jumpi\n    tag_31:\n      pop\n      pop\n      pop\n      pop\n      pop\n      swap2\n      pop\n      dup1\n      0x0a\n      dup1\n      0x20\n      mul\n      mload(0x40)\n      swap1\n      dup2\n      add\n      0x40\n      mstore\n      dup1\n      swap3\n      swap2\n      swap1\n      dup3\n      0x0a\n      dup1\n      iszero\n      tag_33\n      jumpi\n      0x20\n      mul\n      dup3\n      add\n      swap2\n      0x00\n      swap1\n    tag_34:\n      dup3\n      dup3\n      swap1\n      sload\n      swap1\n      0x0100\n      exp\n      swap1\n      div\n      0xff\n      and\n      iszero\n      iszero\n      dup2\n      mstore\n      0x20\n      add\n      swap1\n      0x01\n      add\n      swap1\n      0x20\n      dup3\n      0x00\n      add\n      div\n      swap3\n      dup4\n      add\n      swap3\n      0x01\n      sub\n      dup3\n      mul\n      swap2\n      pop\n      dup1\n      dup5\n      gt\n      tag_34\n      jumpi\n      swap1\n      pop\n    tag_33:\n      pop\n      pop\n      pop\n      pop\n      pop\n      swap1\n      pop\n      swap7\n      pop\n      swap7\n      pop\n      swap7\n      pop\n      swap7\n      pop\n      swap7\n      pop\n      swap7\n      pop\n      pop\n        /* \"BTTC_loadsave.sol\":1885:2495  function loadProgress() public view returns (\r... */\n      swap1\n      swap2\n      swap3\n      swap4\n      swap5\n      swap6\n      jump\t// out\n        /* \"BTTC_loadsave.sol\":534:571  mapping(address => User) public users */\n    tag_13:\n      mstore(0x20, 0x00)\n      dup1\n      0x00\n      mstore\n      keccak256(0x00, 0x40)\n      0x00\n      swap2\n      pop\n      swap1\n      pop\n      dup1\n      0x00\n      add\n      sload\n      swap1\n      dup1\n      0x01\n      add\n      sload\n      swap1\n      pop\n      dup3\n      jump\t// out\n        /* \"BTTC_loadsave.sol\":876:1838  function saveProgress(\r... */\n    tag_19:\n        /* \"BTTC_loadsave.sol\":1167:1184  User storage user */\n      0x00\n        /* \"BTTC_loadsave.sol\":1187:1192  users */\n      dup1\n        /* \"BTTC_loadsave.sol\":1187:1204  users[msg.sender] */\n      0x00\n        /* \"BTTC_loadsave.sol\":1193:1203  msg.sender */\n      caller\n        /* \"BTTC_loadsave.sol\":1187:1204  users[msg.sender] */\n      0xffffffffffffffffffffffffffffffffffffffff\n      and\n      0xffffffffffffffffffffffffffffffffffffffff\n      and\n      dup2\n      mstore\n      0x20\n      add\n      swap1\n      dup2\n      mstore\n      0x20\n      add\n      0x00\n      keccak256\n        /* \"BTTC_loadsave.sol\":1167:1204  User storage user = users[msg.sender] */\n      swap1\n      pop\n        /* \"BTTC_loadsave.sol\":1265:1276  _totalCoins */\n      dup7\n        /* \"BTTC_loadsave.sol\":1247:1251  user */\n      dup2\n        /* \"BTTC_loadsave.sol\":1247:1262  user.totalCoins */\n      0x00\n      add\n        /* \"BTTC_loadsave.sol\":1247:1276  user.totalCoins = _totalCoins */\n      dup2\n      swap1\n      sstore\n      pop\n        /* \"BTTC_loadsave.sol\":1341:1356  _coinsPerSecond */\n      dup6\n        /* \"BTTC_loadsave.sol\":1319:1323  user */\n      dup2\n        /* \"BTTC_loadsave.sol\":1319:1338  user.coinsPerSecond */\n      0x01\n      add\n        /* \"BTTC_loadsave.sol\":1319:1356  user.coinsPerSecond = _coinsPerSecond */\n      dup2\n      swap1\n      sstore\n      pop\n        /* \"BTTC_loadsave.sol\":1419:1435  _producerAmounts */\n      dup5\n        /* \"BTTC_loadsave.sol\":1396:1400  user */\n      dup2\n        /* \"BTTC_loadsave.sol\":1396:1416  user.producerAmounts */\n      0x02\n      add\n        /* \"BTTC_loadsave.sol\":1396:1435  user.producerAmounts = _producerAmounts */\n      swap1\n      0x0a\n      tag_36\n      swap3\n      swap2\n      swap1\n      tag_37\n      jump\t// in\n    tag_36:\n      pop\n        /* \"BTTC_loadsave.sol\":1495:1509  _producerCosts */\n      dup4\n        /* \"BTTC_loadsave.sol\":1474:1478  user */\n      dup2\n        /* \"BTTC_loadsave.sol\":1474:1492  user.producerCosts */\n      0x0c\n      add\n        /* \"BTTC_loadsave.sol\":1474:1509  user.producerCosts = _producerCosts */\n      swap1\n      0x0a\n      tag_38\n      swap3\n      swap2\n      swap1\n      tag_37\n      jump\t// in\n    tag_38:\n      pop\n        /* \"BTTC_loadsave.sol\":1574:1591  _producerRevenues */\n      dup3\n        /* \"BTTC_loadsave.sol\":1550:1554  user */\n      dup2\n        /* \"BTTC_loadsave.sol\":1550:1571  user.producerRevenues */\n      0x16\n      add\n        /* \"BTTC_loadsave.sol\":1550:1591  user.producerRevenues = _producerRevenues */\n      swap1\n      0x0a\n      tag_39\n      swap3\n      swap2\n      swap1\n      tag_37\n      jump\t// in\n    tag_39:\n      pop\n        /* \"BTTC_loadsave.sol\":1653:1669  _managerStatuses */\n      dup2\n        /* \"BTTC_loadsave.sol\":1630:1634  user */\n      dup2\n        /* \"BTTC_loadsave.sol\":1630:1650  user.managerStatuses */\n      0x20\n      add\n        /* \"BTTC_loadsave.sol\":1630:1669  user.managerStatuses = _managerStatuses */\n      swap1\n      0x0a\n      tag_40\n      swap3\n      swap2\n      swap1\n      tag_41\n      jump\t// in\n    tag_40:\n      pop\n        /* \"BTTC_loadsave.sol\":1715:1830  UserProgressUpdated(msg.sender, _totalCoins, _producerAmounts, _producerCosts, _producerRevenues, _managerStatuses) */\n      0xeefe26cb513e538cf9cf968ce685e3c32ac19de4e9471c6362eda6f7f79765b2\n        /* \"BTTC_loadsave.sol\":1735:1745  msg.sender */\n      caller\n        /* \"BTTC_loadsave.sol\":1747:1758  _totalCoins */\n      dup9\n        /* \"BTTC_loadsave.sol\":1760:1776  _producerAmounts */\n      dup8\n        /* \"BTTC_loadsave.sol\":1778:1792  _producerCosts */\n      dup8\n        /* \"BTTC_loadsave.sol\":1794:1811  _producerRevenues */\n      dup8\n        /* \"BTTC_loadsave.sol\":1813:1829  _managerStatuses */\n      dup8\n        /* \"BTTC_loadsave.sol\":1715:1830  UserProgressUpdated(msg.sender, _totalCoins, _producerAmounts, _producerCosts, _producerRevenues, _managerStatuses) */\n      mload(0x40)\n      tag_42\n      swap7\n      swap6\n      swap5\n      swap4\n      swap3\n      swap2\n      swap1\n      tag_43\n      jump\t// in\n    tag_42:\n      mload(0x40)\n      dup1\n      swap2\n      sub\n      swap1\n      log1\n        /* \"BTTC_loadsave.sol\":876:1838  function saveProgress(\r... */\n      pop\n      pop\n      pop\n      pop\n      pop\n      pop\n      pop\n      jump\t// out\n    tag_21:\n      mload(0x40)\n      dup1\n      0x0140\n      add\n      0x40\n      mstore\n      dup1\n      0x0a\n      swap1\n      0x20\n      dup3\n      mul\n      dup1\n      calldatasize\n      dup4\n      calldatacopy\n      dup1\n      dup3\n      add\n      swap2\n      pop\n      pop\n      swap1\n      pop\n      pop\n      swap1\n      jump\t// out\n    tag_25:\n      mload(0x40)\n      dup1\n      0x0140\n      add\n      0x40\n      mstore\n      dup1\n      0x0a\n      swap1\n      0x20\n      dup3\n      mul\n      dup1\n      calldatasize\n      dup4\n      calldatacopy\n      dup1\n      dup3\n      add\n      swap2\n      pop\n      pop\n      swap1\n      pop\n      pop\n      swap1\n      jump\t// out\n    tag_37:\n      dup3\n      0x0a\n      dup2\n      add\n      swap3\n      dup3\n      iszero\n      tag_44\n      jumpi\n      swap2\n      0x20\n      mul\n      dup3\n      add\n    tag_45:\n      dup3\n      dup2\n      gt\n      iszero\n      tag_46\n      jumpi\n      dup3\n      mload\n      dup3\n      sstore\n      swap2\n      0x20\n      add\n      swap2\n      swap1\n      0x01\n      add\n      swap1\n      jump(tag_45)\n    tag_46:\n    tag_44:\n      pop\n      swap1\n      pop\n      tag_47\n      swap2\n      swap1\n      tag_48\n      jump\t// in\n    tag_47:\n      pop\n      swap1\n      jump\t// out\n    tag_41:\n      dup3\n      add(0x1f, 0x0a)\n      0x20\n      swap1\n      div\n      dup2\n      add\n      swap3\n      dup3\n      iszero\n      tag_49\n      jumpi\n      swap2\n      0x20\n      mul\n      dup3\n      add\n      0x00\n    tag_50:\n      dup4\n      dup3\n      gt\n      iszero\n      tag_51\n      jumpi\n      dup4\n      mload\n      dup4\n      dup3\n      0x0100\n      exp\n      dup2\n      sload\n      dup2\n      0xff\n      mul\n      not\n      and\n      swap1\n      dup4\n      iszero\n      iszero\n      mul\n      or\n      swap1\n      sstore\n      pop\n      swap3\n      0x20\n      add\n      swap3\n      0x01\n      add\n      0x20\n      dup2\n      0x00\n      add\n      div\n      swap3\n      dup4\n      add\n      swap3\n      0x01\n      sub\n      mul\n      jump(tag_50)\n    tag_51:\n      dup1\n      iszero\n      tag_52\n      jumpi\n      dup3\n      dup2\n      0x0100\n      exp\n      dup2\n      sload\n      swap1\n      0xff\n      mul\n      not\n      and\n      swap1\n      sstore\n      0x01\n      add\n      0x20\n      dup2\n      0x00\n      add\n      div\n      swap3\n      dup4\n      add\n      swap3\n      0x01\n      sub\n      mul\n      jump(tag_51)\n    tag_52:\n      pop\n    tag_49:\n      pop\n      swap1\n      pop\n      tag_53\n      swap2\n      swap1\n      tag_48\n      jump\t// in\n    tag_53:\n      pop\n      swap1\n      jump\t// out\n    tag_48:\n    tag_54:\n      dup1\n      dup3\n      gt\n      iszero\n      tag_55\n      jumpi\n      0x00\n      dup2\n      0x00\n      swap1\n      sstore\n      pop\n      0x01\n      add\n      jump(tag_54)\n    tag_55:\n      pop\n      swap1\n      jump\t// out\n        /* \"#utility.yul\":23:581   */\n    tag_57:\n      0x00\n        /* \"#utility.yul\":140:216   */\n      tag_59\n        /* \"#utility.yul\":155:215   */\n      tag_60\n        /* \"#utility.yul\":208:214   */\n      dup5\n        /* \"#utility.yul\":155:215   */\n      tag_61\n      jump\t// in\n    tag_60:\n        /* \"#utility.yul\":140:216   */\n      tag_62\n      jump\t// in\n    tag_59:\n        /* \"#utility.yul\":131:216   */\n      swap1\n      pop\n        /* \"#utility.yul\":236:241   */\n      dup1\n        /* \"#utility.yul\":262:268   */\n      dup3\n        /* \"#utility.yul\":312:315   */\n      dup6\n        /* \"#utility.yul\":304:308   */\n      0x20\n        /* \"#utility.yul\":296:302   */\n      dup7\n        /* \"#utility.yul\":292:309   */\n      mul\n        /* \"#utility.yul\":287:290   */\n      dup3\n        /* \"#utility.yul\":283:310   */\n      add\n        /* \"#utility.yul\":280:316   */\n      gt\n        /* \"#utility.yul\":277:279   */\n      iszero\n      tag_63\n      jumpi\n        /* \"#utility.yul\":329:330   */\n      0x00\n        /* \"#utility.yul\":326:327   */\n      dup1\n        /* \"#utility.yul\":319:331   */\n      revert\n        /* \"#utility.yul\":277:279   */\n    tag_63:\n        /* \"#utility.yul\":357:358   */\n      0x00\n        /* \"#utility.yul\":342:575   */\n    tag_64:\n        /* \"#utility.yul\":367:373   */\n      dup6\n        /* \"#utility.yul\":364:365   */\n      dup2\n        /* \"#utility.yul\":361:374   */\n      lt\n        /* \"#utility.yul\":342:575   */\n      iszero\n      tag_66\n      jumpi\n        /* \"#utility.yul\":434:437   */\n      dup2\n        /* \"#utility.yul\":462:496   */\n      tag_67\n        /* \"#utility.yul\":492:495   */\n      dup9\n        /* \"#utility.yul\":480:490   */\n      dup3\n        /* \"#utility.yul\":462:496   */\n      tag_68\n      jump\t// in\n    tag_67:\n        /* \"#utility.yul\":457:460   */\n      dup5\n        /* \"#utility.yul\":450:497   */\n      mstore\n        /* \"#utility.yul\":526:530   */\n      0x20\n        /* \"#utility.yul\":521:524   */\n      dup5\n        /* \"#utility.yul\":517:531   */\n      add\n        /* \"#utility.yul\":510:531   */\n      swap4\n      pop\n        /* \"#utility.yul\":560:564   */\n      0x20\n        /* \"#utility.yul\":555:558   */\n      dup4\n        /* \"#utility.yul\":551:565   */\n      add\n        /* \"#utility.yul\":544:565   */\n      swap3\n      pop\n        /* \"#utility.yul\":402:575   */\n      pop\n        /* \"#utility.yul\":389:390   */\n      0x01\n        /* \"#utility.yul\":386:387   */\n      dup2\n        /* \"#utility.yul\":382:391   */\n      add\n        /* \"#utility.yul\":377:391   */\n      swap1\n      pop\n        /* \"#utility.yul\":342:575   */\n      jump(tag_64)\n    tag_66:\n        /* \"#utility.yul\":346:360   */\n      pop\n        /* \"#utility.yul\":121:581   */\n      pop\n      pop\n      swap4\n      swap3\n      pop\n      pop\n      pop\n      jump\t// out\n        /* \"#utility.yul\":606:1173   */\n    tag_69:\n      0x00\n        /* \"#utility.yul\":726:805   */\n      tag_71\n        /* \"#utility.yul\":741:804   */\n      tag_72\n        /* \"#utility.yul\":797:803   */\n      dup5\n        /* \"#utility.yul\":741:804   */\n      tag_73\n      jump\t// in\n    tag_72:\n        /* \"#utility.yul\":726:805   */\n      tag_62\n      jump\t// in\n    tag_71:\n        /* \"#utility.yul\":717:805   */\n      swap1\n      pop\n        /* \"#utility.yul\":825:830   */\n      dup1\n        /* \"#utility.yul\":851:857   */\n      dup3\n        /* \"#utility.yul\":901:904   */\n      dup6\n        /* \"#utility.yul\":893:897   */\n      0x20\n        /* \"#utility.yul\":885:891   */\n      dup7\n        /* \"#utility.yul\":881:898   */\n      mul\n        /* \"#utility.yul\":876:879   */\n      dup3\n        /* \"#utility.yul\":872:899   */\n      add\n        /* \"#utility.yul\":869:905   */\n      gt\n        /* \"#utility.yul\":866:868   */\n      iszero\n      tag_74\n      jumpi\n        /* \"#utility.yul\":918:919   */\n      0x00\n        /* \"#utility.yul\":915:916   */\n      dup1\n        /* \"#utility.yul\":908:920   */\n      revert\n        /* \"#utility.yul\":866:868   */\n    tag_74:\n        /* \"#utility.yul\":946:947   */\n      0x00\n        /* \"#utility.yul\":931:1167   */\n    tag_75:\n        /* \"#utility.yul\":956:962   */\n      dup6\n        /* \"#utility.yul\":953:954   */\n      dup2\n        /* \"#utility.yul\":950:963   */\n      lt\n        /* \"#utility.yul\":931:1167   */\n      iszero\n      tag_77\n      jumpi\n        /* \"#utility.yul\":1023:1026   */\n      dup2\n        /* \"#utility.yul\":1051:1088   */\n      tag_78\n        /* \"#utility.yul\":1084:1087   */\n      dup9\n        /* \"#utility.yul\":1072:1082   */\n      dup3\n        /* \"#utility.yul\":1051:1088   */\n      tag_79\n      jump\t// in\n    tag_78:\n        /* \"#utility.yul\":1046:1049   */\n      dup5\n        /* \"#utility.yul\":1039:1089   */\n      mstore\n        /* \"#utility.yul\":1118:1122   */\n      0x20\n        /* \"#utility.yul\":1113:1116   */\n      dup5\n        /* \"#utility.yul\":1109:1123   */\n      add\n        /* \"#utility.yul\":1102:1123   */\n      swap4\n      pop\n        /* \"#utility.yul\":1152:1156   */\n      0x20\n        /* \"#utility.yul\":1147:1150   */\n      dup4\n        /* \"#utility.yul\":1143:1157   */\n      add\n        /* \"#utility.yul\":1136:1157   */\n      swap3\n      pop\n        /* \"#utility.yul\":991:1167   */\n      pop\n        /* \"#utility.yul\":978:979   */\n      0x01\n        /* \"#utility.yul\":975:976   */\n      dup2\n        /* \"#utility.yul\":971:980   */\n      add\n        /* \"#utility.yul\":966:980   */\n      swap1\n      pop\n        /* \"#utility.yul\":931:1167   */\n      jump(tag_75)\n    tag_77:\n        /* \"#utility.yul\":935:949   */\n      pop\n        /* \"#utility.yul\":707:1173   */\n      pop\n      pop\n      swap4\n      swap3\n      pop\n      pop\n      pop\n      jump\t// out\n        /* \"#utility.yul\":1179:1318   */\n    tag_80:\n      0x00\n        /* \"#utility.yul\":1263:1269   */\n      dup2\n        /* \"#utility.yul\":1250:1270   */\n      calldataload\n        /* \"#utility.yul\":1241:1270   */\n      swap1\n      pop\n        /* \"#utility.yul\":1279:1312   */\n      tag_82\n        /* \"#utility.yul\":1306:1311   */\n      dup2\n        /* \"#utility.yul\":1279:1312   */\n      tag_83\n      jump\t// in\n    tag_82:\n        /* \"#utility.yul\":1231:1318   */\n      swap3\n      swap2\n      pop\n      pop\n      jump\t// out\n        /* \"#utility.yul\":1340:1608   */\n    tag_84:\n      0x00\n        /* \"#utility.yul\":1456:1459   */\n      dup3\n        /* \"#utility.yul\":1449:1453   */\n      0x1f\n        /* \"#utility.yul\":1441:1447   */\n      dup4\n        /* \"#utility.yul\":1437:1454   */\n      add\n        /* \"#utility.yul\":1433:1460   */\n      slt\n        /* \"#utility.yul\":1423:1425   */\n      tag_86\n      jumpi\n        /* \"#utility.yul\":1474:1475   */\n      0x00\n        /* \"#utility.yul\":1471:1472   */\n      dup1\n        /* \"#utility.yul\":1464:1476   */\n      revert\n        /* \"#utility.yul\":1423:1425   */\n    tag_86:\n        /* \"#utility.yul\":1501:1505   */\n      0x0a\n        /* \"#utility.yul\":1523:1602   */\n      tag_87\n        /* \"#utility.yul\":1598:1601   */\n      dup5\n        /* \"#utility.yul\":1590:1596   */\n      dup3\n        /* \"#utility.yul\":1582:1588   */\n      dup6\n        /* \"#utility.yul\":1523:1602   */\n      tag_57\n      jump\t// in\n    tag_87:\n        /* \"#utility.yul\":1514:1602   */\n      swap2\n      pop\n        /* \"#utility.yul\":1413:1608   */\n      pop\n      swap3\n      swap2\n      pop\n      pop\n      jump\t// out\n        /* \"#utility.yul\":1633:1907   */\n    tag_88:\n      0x00\n        /* \"#utility.yul\":1752:1755   */\n      dup3\n        /* \"#utility.yul\":1745:1749   */\n      0x1f\n        /* \"#utility.yul\":1737:1743   */\n      dup4\n        /* \"#utility.yul\":1733:1750   */\n      add\n        /* \"#utility.yul\":1729:1756   */\n      slt\n        /* \"#utility.yul\":1719:1721   */\n      tag_90\n      jumpi\n        /* \"#utility.yul\":1770:1771   */\n      0x00\n        /* \"#utility.yul\":1767:1768   */\n      dup1\n        /* \"#utility.yul\":1760:1772   */\n      revert\n        /* \"#utility.yul\":1719:1721   */\n    tag_90:\n        /* \"#utility.yul\":1797:1801   */\n      0x0a\n        /* \"#utility.yul\":1819:1901   */\n      tag_91\n        /* \"#utility.yul\":1897:1900   */\n      dup5\n        /* \"#utility.yul\":1889:1895   */\n      dup3\n        /* \"#utility.yul\":1881:1887   */\n      dup6\n        /* \"#utility.yul\":1819:1901   */\n      tag_69\n      jump\t// in\n    tag_91:\n        /* \"#utility.yul\":1810:1901   */\n      swap2\n      pop\n        /* \"#utility.yul\":1709:1907   */\n      pop\n      swap3\n      swap2\n      pop\n      pop\n      jump\t// out\n        /* \"#utility.yul\":1913:2046   */\n    tag_68:\n      0x00\n        /* \"#utility.yul\":1994:2000   */\n      dup2\n        /* \"#utility.yul\":1981:2001   */\n      calldataload\n        /* \"#utility.yul\":1972:2001   */\n      swap1\n      pop\n        /* \"#utility.yul\":2010:2040   */\n      tag_93\n        /* \"#utility.yul\":2034:2039   */\n      dup2\n        /* \"#utility.yul\":2010:2040   */\n      tag_94\n      jump\t// in\n    tag_93:\n        /* \"#utility.yul\":1962:2046   */\n      swap3\n      swap2\n      pop\n      pop\n      jump\t// out\n        /* \"#utility.yul\":2052:2191   */\n    tag_79:\n      0x00\n        /* \"#utility.yul\":2136:2142   */\n      dup2\n        /* \"#utility.yul\":2123:2143   */\n      calldataload\n        /* \"#utility.yul\":2114:2143   */\n      swap1\n      pop\n        /* \"#utility.yul\":2152:2185   */\n      tag_96\n        /* \"#utility.yul\":2179:2184   */\n      dup2\n        /* \"#utility.yul\":2152:2185   */\n      tag_97\n      jump\t// in\n    tag_96:\n        /* \"#utility.yul\":2104:2191   */\n      swap3\n      swap2\n      pop\n      pop\n      jump\t// out\n        /* \"#utility.yul\":2197:2459   */\n    tag_12:\n      0x00\n        /* \"#utility.yul\":2305:2307   */\n      0x20\n        /* \"#utility.yul\":2293:2302   */\n      dup3\n        /* \"#utility.yul\":2284:2291   */\n      dup5\n        /* \"#utility.yul\":2280:2303   */\n      sub\n        /* \"#utility.yul\":2276:2308   */\n      slt\n        /* \"#utility.yul\":2273:2275   */\n      iszero\n      tag_99\n      jumpi\n        /* \"#utility.yul\":2321:2322   */\n      0x00\n        /* \"#utility.yul\":2318:2319   */\n      dup1\n        /* \"#utility.yul\":2311:2323   */\n      revert\n        /* \"#utility.yul\":2273:2275   */\n    tag_99:\n        /* \"#utility.yul\":2364:2365   */\n      0x00\n        /* \"#utility.yul\":2389:2442   */\n      tag_100\n        /* \"#utility.yul\":2434:2441   */\n      dup5\n        /* \"#utility.yul\":2425:2431   */\n      dup3\n        /* \"#utility.yul\":2414:2423   */\n      dup6\n        /* \"#utility.yul\":2410:2432   */\n      add\n        /* \"#utility.yul\":2389:2442   */\n      tag_80\n      jump\t// in\n    tag_100:\n        /* \"#utility.yul\":2379:2442   */\n      swap2\n      pop\n        /* \"#utility.yul\":2335:2452   */\n      pop\n        /* \"#utility.yul\":2263:2459   */\n      swap3\n      swap2\n      pop\n      pop\n      jump\t// out\n        /* \"#utility.yul\":2465:3644   */\n    tag_18:\n      0x00\n      dup1\n      0x00\n      dup1\n      0x00\n      dup1\n        /* \"#utility.yul\":2751:2755   */\n      0x0540\n        /* \"#utility.yul\":2739:2748   */\n      dup8\n        /* \"#utility.yul\":2730:2737   */\n      dup10\n        /* \"#utility.yul\":2726:2749   */\n      sub\n        /* \"#utility.yul\":2722:2756   */\n      slt\n        /* \"#utility.yul\":2719:2721   */\n      iszero\n      tag_102\n      jumpi\n        /* \"#utility.yul\":2769:2770   */\n      0x00\n        /* \"#utility.yul\":2766:2767   */\n      dup1\n        /* \"#utility.yul\":2759:2771   */\n      revert\n        /* \"#utility.yul\":2719:2721   */\n    tag_102:\n        /* \"#utility.yul\":2812:2813   */\n      0x00\n        /* \"#utility.yul\":2837:2890   */\n      tag_103\n        /* \"#utility.yul\":2882:2889   */\n      dup10\n        /* \"#utility.yul\":2873:2879   */\n      dup3\n        /* \"#utility.yul\":2862:2871   */\n      dup11\n        /* \"#utility.yul\":2858:2880   */\n      add\n        /* \"#utility.yul\":2837:2890   */\n      tag_79\n      jump\t// in\n    tag_103:\n        /* \"#utility.yul\":2827:2890   */\n      swap7\n      pop\n        /* \"#utility.yul\":2783:2900   */\n      pop\n        /* \"#utility.yul\":2939:2941   */\n      0x20\n        /* \"#utility.yul\":2965:3018   */\n      tag_104\n        /* \"#utility.yul\":3010:3017   */\n      dup10\n        /* \"#utility.yul\":3001:3007   */\n      dup3\n        /* \"#utility.yul\":2990:2999   */\n      dup11\n        /* \"#utility.yul\":2986:3008   */\n      add\n        /* \"#utility.yul\":2965:3018   */\n      tag_79\n      jump\t// in\n    tag_104:\n        /* \"#utility.yul\":2955:3018   */\n      swap6\n      pop\n        /* \"#utility.yul\":2910:3028   */\n      pop\n        /* \"#utility.yul\":3067:3069   */\n      0x40\n        /* \"#utility.yul\":3093:3170   */\n      tag_105\n        /* \"#utility.yul\":3162:3169   */\n      dup10\n        /* \"#utility.yul\":3153:3159   */\n      dup3\n        /* \"#utility.yul\":3142:3151   */\n      dup11\n        /* \"#utility.yul\":3138:3160   */\n      add\n        /* \"#utility.yul\":3093:3170   */\n      tag_88\n      jump\t// in\n    tag_105:\n        /* \"#utility.yul\":3083:3170   */\n      swap5\n      pop\n        /* \"#utility.yul\":3038:3180   */\n      pop\n        /* \"#utility.yul\":3219:3222   */\n      0x0180\n        /* \"#utility.yul\":3246:3323   */\n      tag_106\n        /* \"#utility.yul\":3315:3322   */\n      dup10\n        /* \"#utility.yul\":3306:3312   */\n      dup3\n        /* \"#utility.yul\":3295:3304   */\n      dup11\n        /* \"#utility.yul\":3291:3313   */\n      add\n        /* \"#utility.yul\":3246:3323   */\n      tag_88\n      jump\t// in\n    tag_106:\n        /* \"#utility.yul\":3236:3323   */\n      swap4\n      pop\n        /* \"#utility.yul\":3190:3333   */\n      pop\n        /* \"#utility.yul\":3372:3375   */\n      0x02c0\n        /* \"#utility.yul\":3399:3476   */\n      tag_107\n        /* \"#utility.yul\":3468:3475   */\n      dup10\n        /* \"#utility.yul\":3459:3465   */\n      dup3\n        /* \"#utility.yul\":3448:3457   */\n      dup11\n        /* \"#utility.yul\":3444:3466   */\n      add\n        /* \"#utility.yul\":3399:3476   */\n      tag_88\n      jump\t// in\n    tag_107:\n        /* \"#utility.yul\":3389:3476   */\n      swap3\n      pop\n        /* \"#utility.yul\":3343:3486   */\n      pop\n        /* \"#utility.yul\":3525:3529   */\n      0x0400\n        /* \"#utility.yul\":3553:3627   */\n      tag_108\n        /* \"#utility.yul\":3619:3626   */\n      dup10\n        /* \"#utility.yul\":3610:3616   */\n      dup3\n        /* \"#utility.yul\":3599:3608   */\n      dup11\n        /* \"#utility.yul\":3595:3617   */\n      add\n        /* \"#utility.yul\":3553:3627   */\n      tag_84\n      jump\t// in\n    tag_108:\n        /* \"#utility.yul\":3543:3627   */\n      swap2\n      pop\n        /* \"#utility.yul\":3496:3637   */\n      pop\n        /* \"#utility.yul\":2709:3644   */\n      swap3\n      swap6\n      pop\n      swap3\n      swap6\n      pop\n      swap3\n      swap6\n      jump\t// out\n        /* \"#utility.yul\":3650:3817   */\n    tag_109:\n      0x00\n        /* \"#utility.yul\":3734:3774   */\n      tag_111\n        /* \"#utility.yul\":3770:3773   */\n      dup4\n        /* \"#utility.yul\":3762:3768   */\n      dup4\n        /* \"#utility.yul\":3734:3774   */\n      tag_112\n      jump\t// in\n    tag_111:\n        /* \"#utility.yul\":3806:3810   */\n      0x20\n        /* \"#utility.yul\":3801:3804   */\n      dup4\n        /* \"#utility.yul\":3797:3811   */\n      add\n        /* \"#utility.yul\":3783:3811   */\n      swap1\n      pop\n        /* \"#utility.yul\":3724:3817   */\n      swap3\n      swap2\n      pop\n      pop\n      jump\t// out\n        /* \"#utility.yul\":3823:4002   */\n    tag_113:\n      0x00\n        /* \"#utility.yul\":3913:3959   */\n      tag_115\n        /* \"#utility.yul\":3955:3958   */\n      dup4\n        /* \"#utility.yul\":3947:3953   */\n      dup4\n        /* \"#utility.yul\":3913:3959   */\n      tag_116\n      jump\t// in\n    tag_115:\n        /* \"#utility.yul\":3991:3995   */\n      0x20\n        /* \"#utility.yul\":3986:3989   */\n      dup4\n        /* \"#utility.yul\":3982:3996   */\n      add\n        /* \"#utility.yul\":3968:3996   */\n      swap1\n      pop\n        /* \"#utility.yul\":3903:4002   */\n      swap3\n      swap2\n      pop\n      pop\n      jump\t// out\n        /* \"#utility.yul\":4008:4126   */\n    tag_117:\n        /* \"#utility.yul\":4095:4119   */\n      tag_119\n        /* \"#utility.yul\":4113:4118   */\n      dup2\n        /* \"#utility.yul\":4095:4119   */\n      tag_120\n      jump\t// in\n    tag_119:\n        /* \"#utility.yul\":4090:4093   */\n      dup3\n        /* \"#utility.yul\":4083:4120   */\n      mstore\n        /* \"#utility.yul\":4073:4126   */\n      pop\n      pop\n      jump\t// out\n        /* \"#utility.yul\":4160:4836   */\n    tag_121:\n        /* \"#utility.yul\":4292:4342   */\n      tag_123\n        /* \"#utility.yul\":4336:4341   */\n      dup2\n        /* \"#utility.yul\":4292:4342   */\n      tag_124\n      jump\t// in\n    tag_123:\n        /* \"#utility.yul\":4358:4440   */\n      tag_125\n        /* \"#utility.yul\":4433:4439   */\n      dup2\n        /* \"#utility.yul\":4428:4431   */\n      dup5\n        /* \"#utility.yul\":4358:4440   */\n      tag_126\n      jump\t// in\n    tag_125:\n        /* \"#utility.yul\":4351:4440   */\n      swap3\n      pop\n        /* \"#utility.yul\":4464:4516   */\n      tag_127\n        /* \"#utility.yul\":4510:4515   */\n      dup3\n        /* \"#utility.yul\":4464:4516   */\n      tag_128\n      jump\t// in\n    tag_127:\n        /* \"#utility.yul\":4539:4546   */\n      dup1\n        /* \"#utility.yul\":4570:4571   */\n      0x00\n        /* \"#utility.yul\":4555:4829   */\n    tag_129:\n        /* \"#utility.yul\":4580:4586   */\n      dup4\n        /* \"#utility.yul\":4577:4578   */\n      dup2\n        /* \"#utility.yul\":4574:4587   */\n      lt\n        /* \"#utility.yul\":4555:4829   */\n      iszero\n      tag_131\n      jumpi\n        /* \"#utility.yul\":4656:4662   */\n      dup2\n        /* \"#utility.yul\":4650:4663   */\n      mload\n        /* \"#utility.yul\":4683:4740   */\n      tag_132\n        /* \"#utility.yul\":4736:4739   */\n      dup8\n        /* \"#utility.yul\":4721:4734   */\n      dup3\n        /* \"#utility.yul\":4683:4740   */\n      tag_109\n      jump\t// in\n    tag_132:\n        /* \"#utility.yul\":4676:4740   */\n      swap7\n      pop\n        /* \"#utility.yul\":4763:4819   */\n      tag_133\n        /* \"#utility.yul\":4812:4818   */\n      dup4\n        /* \"#utility.yul\":4763:4819   */\n      tag_134\n      jump\t// in\n    tag_133:\n        /* \"#utility.yul\":4753:4819   */\n      swap3\n      pop\n        /* \"#utility.yul\":4615:4829   */\n      pop\n        /* \"#utility.yul\":4602:4603   */\n      0x01\n        /* \"#utility.yul\":4599:4600   */\n      dup2\n        /* \"#utility.yul\":4595:4604   */\n      add\n        /* \"#utility.yul\":4590:4604   */\n      swap1\n      pop\n        /* \"#utility.yul\":4555:4829   */\n      jump(tag_129)\n    tag_131:\n        /* \"#utility.yul\":4559:4573   */\n      pop\n        /* \"#utility.yul\":4268:4836   */\n      pop\n      pop\n      pop\n      pop\n      pop\n      jump\t// out\n        /* \"#utility.yul\":4876:5576   */\n    tag_135:\n        /* \"#utility.yul\":5014:5067   */\n      tag_137\n        /* \"#utility.yul\":5061:5066   */\n      dup2\n        /* \"#utility.yul\":5014:5067   */\n      tag_138\n      jump\t// in\n    tag_137:\n        /* \"#utility.yul\":5083:5168   */\n      tag_139\n        /* \"#utility.yul\":5161:5167   */\n      dup2\n        /* \"#utility.yul\":5156:5159   */\n      dup5\n        /* \"#utility.yul\":5083:5168   */\n      tag_140\n      jump\t// in\n    tag_139:\n        /* \"#utility.yul\":5076:5168   */\n      swap3\n      pop\n        /* \"#utility.yul\":5192:5247   */\n      tag_141\n        /* \"#utility.yul\":5241:5246   */\n      dup3\n        /* \"#utility.yul\":5192:5247   */\n      tag_142\n      jump\t// in\n    tag_141:\n        /* \"#utility.yul\":5270:5277   */\n      dup1\n        /* \"#utility.yul\":5301:5302   */\n      0x00\n        /* \"#utility.yul\":5286:5569   */\n    tag_143:\n        /* \"#utility.yul\":5311:5317   */\n      dup4\n        /* \"#utility.yul\":5308:5309   */\n      dup2\n        /* \"#utility.yul\":5305:5318   */\n      lt\n        /* \"#utility.yul\":5286:5569   */\n      iszero\n      tag_145\n      jumpi\n        /* \"#utility.yul\":5387:5393   */\n      dup2\n        /* \"#utility.yul\":5381:5394   */\n      mload\n        /* \"#utility.yul\":5414:5477   */\n      tag_146\n        /* \"#utility.yul\":5473:5476   */\n      dup8\n        /* \"#utility.yul\":5458:5471   */\n      dup3\n        /* \"#utility.yul\":5414:5477   */\n      tag_113\n      jump\t// in\n    tag_146:\n        /* \"#utility.yul\":5407:5477   */\n      swap7\n      pop\n        /* \"#utility.yul\":5500:5559   */\n      tag_147\n        /* \"#utility.yul\":5552:5558   */\n      dup4\n        /* \"#utility.yul\":5500:5559   */\n      tag_148\n      jump\t// in\n    tag_147:\n        /* \"#utility.yul\":5490:5559   */\n      swap3\n      pop\n        /* \"#utility.yul\":5346:5569   */\n      pop\n        /* \"#utility.yul\":5333:5334   */\n      0x01\n        /* \"#utility.yul\":5330:5331   */\n      dup2\n        /* \"#utility.yul\":5326:5335   */\n      add\n        /* \"#utility.yul\":5321:5335   */\n      swap1\n      pop\n        /* \"#utility.yul\":5286:5569   */\n      jump(tag_143)\n    tag_145:\n        /* \"#utility.yul\":5290:5304   */\n      pop\n        /* \"#utility.yul\":4990:5576   */\n      pop\n      pop\n      pop\n      pop\n      pop\n      jump\t// out\n        /* \"#utility.yul\":5582:5681   */\n    tag_112:\n        /* \"#utility.yul\":5653:5674   */\n      tag_150\n        /* \"#utility.yul\":5668:5673   */\n      dup2\n        /* \"#utility.yul\":5653:5674   */\n      tag_151\n      jump\t// in\n    tag_150:\n        /* \"#utility.yul\":5648:5651   */\n      dup3\n        /* \"#utility.yul\":5641:5675   */\n      mstore\n        /* \"#utility.yul\":5631:5681   */\n      pop\n      pop\n      jump\t// out\n        /* \"#utility.yul\":5687:5795   */\n    tag_116:\n        /* \"#utility.yul\":5764:5788   */\n      tag_153\n        /* \"#utility.yul\":5782:5787   */\n      dup2\n        /* \"#utility.yul\":5764:5788   */\n      tag_154\n      jump\t// in\n    tag_153:\n        /* \"#utility.yul\":5759:5762   */\n      dup3\n        /* \"#utility.yul\":5752:5789   */\n      mstore\n        /* \"#utility.yul\":5742:5795   */\n      pop\n      pop\n      jump\t// out\n        /* \"#utility.yul\":5801:5919   */\n    tag_155:\n        /* \"#utility.yul\":5888:5912   */\n      tag_157\n        /* \"#utility.yul\":5906:5911   */\n      dup2\n        /* \"#utility.yul\":5888:5912   */\n      tag_154\n      jump\t// in\n    tag_157:\n        /* \"#utility.yul\":5883:5886   */\n      dup3\n        /* \"#utility.yul\":5876:5913   */\n      mstore\n        /* \"#utility.yul\":5866:5919   */\n      pop\n      pop\n      jump\t// out\n        /* \"#utility.yul\":5925:7075   */\n    tag_43:\n      0x00\n        /* \"#utility.yul\":6382:6386   */\n      0x0540\n        /* \"#utility.yul\":6371:6380   */\n      dup3\n        /* \"#utility.yul\":6367:6387   */\n      add\n        /* \"#utility.yul\":6359:6387   */\n      swap1\n      pop\n        /* \"#utility.yul\":6397:6468   */\n      tag_159\n        /* \"#utility.yul\":6465:6466   */\n      0x00\n        /* \"#utility.yul\":6454:6463   */\n      dup4\n        /* \"#utility.yul\":6450:6467   */\n      add\n        /* \"#utility.yul\":6441:6447   */\n      dup10\n        /* \"#utility.yul\":6397:6468   */\n      tag_117\n      jump\t// in\n    tag_159:\n        /* \"#utility.yul\":6478:6550   */\n      tag_160\n        /* \"#utility.yul\":6546:6548   */\n      0x20\n        /* \"#utility.yul\":6535:6544   */\n      dup4\n        /* \"#utility.yul\":6531:6549   */\n      add\n        /* \"#utility.yul\":6522:6528   */\n      dup9\n        /* \"#utility.yul\":6478:6550   */\n      tag_155\n      jump\t// in\n    tag_160:\n        /* \"#utility.yul\":6560:6680   */\n      tag_161\n        /* \"#utility.yul\":6676:6678   */\n      0x40\n        /* \"#utility.yul\":6665:6674   */\n      dup4\n        /* \"#utility.yul\":6661:6679   */\n      add\n        /* \"#utility.yul\":6652:6658   */\n      dup8\n        /* \"#utility.yul\":6560:6680   */\n      tag_135\n      jump\t// in\n    tag_161:\n        /* \"#utility.yul\":6690:6811   */\n      tag_162\n        /* \"#utility.yul\":6806:6809   */\n      0x0180\n        /* \"#utility.yul\":6795:6804   */\n      dup4\n        /* \"#utility.yul\":6791:6810   */\n      add\n        /* \"#utility.yul\":6782:6788   */\n      dup7\n        /* \"#utility.yul\":6690:6811   */\n      tag_135\n      jump\t// in\n    tag_162:\n        /* \"#utility.yul\":6821:6942   */\n      tag_163\n        /* \"#utility.yul\":6937:6940   */\n      0x02c0\n        /* \"#utility.yul\":6926:6935   */\n      dup4\n        /* \"#utility.yul\":6922:6941   */\n      add\n        /* \"#utility.yul\":6913:6919   */\n      dup6\n        /* \"#utility.yul\":6821:6942   */\n      tag_135\n      jump\t// in\n    tag_163:\n        /* \"#utility.yul\":6952:7068   */\n      tag_164\n        /* \"#utility.yul\":7062:7066   */\n      0x0400\n        /* \"#utility.yul\":7051:7060   */\n      dup4\n        /* \"#utility.yul\":7047:7067   */\n      add\n        /* \"#utility.yul\":7038:7044   */\n      dup5\n        /* \"#utility.yul\":6952:7068   */\n      tag_121\n      jump\t// in\n    tag_164:\n        /* \"#utility.yul\":6349:7075   */\n      swap8\n      swap7\n      pop\n      pop\n      pop\n      pop\n      pop\n      pop\n      pop\n      jump\t// out\n        /* \"#utility.yul\":7081:7413   */\n    tag_15:\n      0x00\n        /* \"#utility.yul\":7240:7242   */\n      0x40\n        /* \"#utility.yul\":7229:7238   */\n      dup3\n        /* \"#utility.yul\":7225:7243   */\n      add\n        /* \"#utility.yul\":7217:7243   */\n      swap1\n      pop\n        /* \"#utility.yul\":7253:7324   */\n      tag_166\n        /* \"#utility.yul\":7321:7322   */\n      0x00\n        /* \"#utility.yul\":7310:7319   */\n      dup4\n        /* \"#utility.yul\":7306:7323   */\n      add\n        /* \"#utility.yul\":7297:7303   */\n      dup6\n        /* \"#utility.yul\":7253:7324   */\n      tag_155\n      jump\t// in\n    tag_166:\n        /* \"#utility.yul\":7334:7406   */\n      tag_167\n        /* \"#utility.yul\":7402:7404   */\n      0x20\n        /* \"#utility.yul\":7391:7400   */\n      dup4\n        /* \"#utility.yul\":7387:7405   */\n      add\n        /* \"#utility.yul\":7378:7384   */\n      dup5\n        /* \"#utility.yul\":7334:7406   */\n      tag_155\n      jump\t// in\n    tag_167:\n        /* \"#utility.yul\":7207:7413   */\n      swap4\n      swap3\n      pop\n      pop\n      pop\n      jump\t// out\n        /* \"#utility.yul\":7419:8569   */\n    tag_9:\n      0x00\n        /* \"#utility.yul\":7876:7880   */\n      0x0540\n        /* \"#utility.yul\":7865:7874   */\n      dup3\n        /* \"#utility.yul\":7861:7881   */\n      add\n        /* \"#utility.yul\":7853:7881   */\n      swap1\n      pop\n        /* \"#utility.yul\":7891:7962   */\n      tag_169\n        /* \"#utility.yul\":7959:7960   */\n      0x00\n        /* \"#utility.yul\":7948:7957   */\n      dup4\n        /* \"#utility.yul\":7944:7961   */\n      add\n        /* \"#utility.yul\":7935:7941   */\n      dup10\n        /* \"#utility.yul\":7891:7962   */\n      tag_155\n      jump\t// in\n    tag_169:\n        /* \"#utility.yul\":7972:8044   */\n      tag_170\n        /* \"#utility.yul\":8040:8042   */\n      0x20\n        /* \"#utility.yul\":8029:8038   */\n      dup4\n        /* \"#utility.yul\":8025:8043   */\n      add\n        /* \"#utility.yul\":8016:8022   */\n      dup9\n        /* \"#utility.yul\":7972:8044   */\n      tag_155\n      jump\t// in\n    tag_170:\n        /* \"#utility.yul\":8054:8174   */\n      tag_171\n        /* \"#utility.yul\":8170:8172   */\n      0x40\n        /* \"#utility.yul\":8159:8168   */\n      dup4\n        /* \"#utility.yul\":8155:8173   */\n      add\n        /* \"#utility.yul\":8146:8152   */\n      dup8\n        /* \"#utility.yul\":8054:8174   */\n      tag_135\n      jump\t// in\n    tag_171:\n        /* \"#utility.yul\":8184:8305   */\n      tag_172\n        /* \"#utility.yul\":8300:8303   */\n      0x0180\n        /* \"#utility.yul\":8289:8298   */\n      dup4\n        /* \"#utility.yul\":8285:8304   */\n      add\n        /* \"#utility.yul\":8276:8282   */\n      dup7\n        /* \"#utility.yul\":8184:8305   */\n      tag_135\n      jump\t// in\n    tag_172:\n        /* \"#utility.yul\":8315:8436   */\n      tag_173\n        /* \"#utility.yul\":8431:8434   */\n      0x02c0\n        /* \"#utility.yul\":8420:8429   */\n      dup4\n        /* \"#utility.yul\":8416:8435   */\n      add\n        /* \"#utility.yul\":8407:8413   */\n      dup6\n        /* \"#utility.yul\":8315:8436   */\n      tag_135\n      jump\t// in\n    tag_173:\n        /* \"#utility.yul\":8446:8562   */\n      tag_174\n        /* \"#utility.yul\":8556:8560   */\n      0x0400\n        /* \"#utility.yul\":8545:8554   */\n      dup4\n        /* \"#utility.yul\":8541:8561   */\n      add\n        /* \"#utility.yul\":8532:8538   */\n      dup5\n        /* \"#utility.yul\":8446:8562   */\n      tag_121\n      jump\t// in\n    tag_174:\n        /* \"#utility.yul\":7843:8569   */\n      swap8\n      swap7\n      pop\n      pop\n      pop\n      pop\n      pop\n      pop\n      pop\n      jump\t// out\n        /* \"#utility.yul\":8575:8858   */\n    tag_62:\n      0x00\n        /* \"#utility.yul\":8641:8643   */\n      0x40\n        /* \"#utility.yul\":8635:8644   */\n      mload\n        /* \"#utility.yul\":8625:8644   */\n      swap1\n      pop\n        /* \"#utility.yul\":8683:8687   */\n      dup2\n        /* \"#utility.yul\":8675:8681   */\n      dup2\n        /* \"#utility.yul\":8671:8688   */\n      add\n        /* \"#utility.yul\":8790:8796   */\n      dup2\n        /* \"#utility.yul\":8778:8788   */\n      dup2\n        /* \"#utility.yul\":8775:8797   */\n      lt\n        /* \"#utility.yul\":8754:8772   */\n      0xffffffffffffffff\n        /* \"#utility.yul\":8742:8752   */\n      dup3\n        /* \"#utility.yul\":8739:8773   */\n      gt\n        /* \"#utility.yul\":8736:8798   */\n      or\n        /* \"#utility.yul\":8733:8735   */\n      iszero\n      tag_176\n      jumpi\n        /* \"#utility.yul\":8801:8819   */\n      tag_177\n      tag_178\n      jump\t// in\n    tag_177:\n        /* \"#utility.yul\":8733:8735   */\n    tag_176:\n        /* \"#utility.yul\":8841:8851   */\n      dup1\n        /* \"#utility.yul\":8837:8839   */\n      0x40\n        /* \"#utility.yul\":8830:8852   */\n      mstore\n        /* \"#utility.yul\":8615:8858   */\n      pop\n      swap2\n      swap1\n      pop\n      jump\t// out\n        /* \"#utility.yul\":8864:9111   */\n    tag_61:\n      0x00\n        /* \"#utility.yul\":9027:9045   */\n      0xffffffffffffffff\n        /* \"#utility.yul\":9019:9025   */\n      dup3\n        /* \"#utility.yul\":9016:9046   */\n      gt\n        /* \"#utility.yul\":9013:9015   */\n      iszero\n      tag_180\n      jumpi\n        /* \"#utility.yul\":9049:9067   */\n      tag_181\n      tag_178\n      jump\t// in\n    tag_181:\n        /* \"#utility.yul\":9013:9015   */\n    tag_180:\n        /* \"#utility.yul\":9099:9103   */\n      0x20\n        /* \"#utility.yul\":9091:9097   */\n      dup3\n        /* \"#utility.yul\":9087:9104   */\n      mul\n        /* \"#utility.yul\":9079:9104   */\n      swap1\n      pop\n        /* \"#utility.yul\":8942:9111   */\n      swap2\n      swap1\n      pop\n      jump\t// out\n        /* \"#utility.yul\":9117:9367   */\n    tag_73:\n      0x00\n        /* \"#utility.yul\":9283:9301   */\n      0xffffffffffffffff\n        /* \"#utility.yul\":9275:9281   */\n      dup3\n        /* \"#utility.yul\":9272:9302   */\n      gt\n        /* \"#utility.yul\":9269:9271   */\n      iszero\n      tag_183\n      jumpi\n        /* \"#utility.yul\":9305:9323   */\n      tag_184\n      tag_178\n      jump\t// in\n    tag_184:\n        /* \"#utility.yul\":9269:9271   */\n    tag_183:\n        /* \"#utility.yul\":9355:9359   */\n      0x20\n        /* \"#utility.yul\":9347:9353   */\n      dup3\n        /* \"#utility.yul\":9343:9360   */\n      mul\n        /* \"#utility.yul\":9335:9360   */\n      swap1\n      pop\n        /* \"#utility.yul\":9198:9367   */\n      swap2\n      swap1\n      pop\n      jump\t// out\n        /* \"#utility.yul\":9373:9469   */\n    tag_128:\n      0x00\n        /* \"#utility.yul\":9459:9462   */\n      dup2\n        /* \"#utility.yul\":9451:9462   */\n      swap1\n      pop\n        /* \"#utility.yul\":9441:9469   */\n      swap2\n      swap1\n      pop\n      jump\t// out\n        /* \"#utility.yul\":9475:9574   */\n    tag_142:\n      0x00\n        /* \"#utility.yul\":9564:9567   */\n      dup2\n        /* \"#utility.yul\":9556:9567   */\n      swap1\n      pop\n        /* \"#utility.yul\":9546:9574   */\n      swap2\n      swap1\n      pop\n      jump\t// out\n        /* \"#utility.yul\":9580:9682   */\n    tag_124:\n      0x00\n        /* \"#utility.yul\":9671:9675   */\n      0x0a\n        /* \"#utility.yul\":9661:9675   */\n      swap1\n      pop\n        /* \"#utility.yul\":9650:9682   */\n      swap2\n      swap1\n      pop\n      jump\t// out\n        /* \"#utility.yul\":9688:9793   */\n    tag_138:\n      0x00\n        /* \"#utility.yul\":9782:9786   */\n      0x0a\n        /* \"#utility.yul\":9772:9786   */\n      swap1\n      pop\n        /* \"#utility.yul\":9761:9793   */\n      swap2\n      swap1\n      pop\n      jump\t// out\n        /* \"#utility.yul\":9799:9908   */\n    tag_134:\n      0x00\n        /* \"#utility.yul\":9897:9901   */\n      0x20\n        /* \"#utility.yul\":9892:9895   */\n      dup3\n        /* \"#utility.yul\":9888:9902   */\n      add\n        /* \"#utility.yul\":9880:9902   */\n      swap1\n      pop\n        /* \"#utility.yul\":9870:9908   */\n      swap2\n      swap1\n      pop\n      jump\t// out\n        /* \"#utility.yul\":9914:10026   */\n    tag_148:\n      0x00\n        /* \"#utility.yul\":10015:10019   */\n      0x20\n        /* \"#utility.yul\":10010:10013   */\n      dup3\n        /* \"#utility.yul\":10006:10020   */\n      add\n        /* \"#utility.yul\":9998:10020   */\n      swap1\n      pop\n        /* \"#utility.yul\":9988:10026   */\n      swap2\n      swap1\n      pop\n      jump\t// out\n        /* \"#utility.yul\":10032:10173   */\n    tag_126:\n      0x00\n        /* \"#utility.yul\":10164:10167   */\n      dup2\n        /* \"#utility.yul\":10149:10167   */\n      swap1\n      pop\n        /* \"#utility.yul\":10139:10173   */\n      swap3\n      swap2\n      pop\n      pop\n      jump\t// out\n        /* \"#utility.yul\":10179:10323   */\n    tag_140:\n      0x00\n        /* \"#utility.yul\":10314:10317   */\n      dup2\n        /* \"#utility.yul\":10299:10317   */\n      swap1\n      pop\n        /* \"#utility.yul\":10289:10323   */\n      swap3\n      swap2\n      pop\n      pop\n      jump\t// out\n        /* \"#utility.yul\":10329:10425   */\n    tag_120:\n      0x00\n        /* \"#utility.yul\":10395:10419   */\n      tag_194\n        /* \"#utility.yul\":10413:10418   */\n      dup3\n        /* \"#utility.yul\":10395:10419   */\n      tag_195\n      jump\t// in\n    tag_194:\n        /* \"#utility.yul\":10384:10419   */\n      swap1\n      pop\n        /* \"#utility.yul\":10374:10425   */\n      swap2\n      swap1\n      pop\n      jump\t// out\n        /* \"#utility.yul\":10431:10521   */\n    tag_151:\n      0x00\n        /* \"#utility.yul\":10508:10513   */\n      dup2\n        /* \"#utility.yul\":10501:10514   */\n      iszero\n        /* \"#utility.yul\":10494:10515   */\n      iszero\n        /* \"#utility.yul\":10483:10515   */\n      swap1\n      pop\n        /* \"#utility.yul\":10473:10521   */\n      swap2\n      swap1\n      pop\n      jump\t// out\n        /* \"#utility.yul\":10527:10653   */\n    tag_195:\n      0x00\n        /* \"#utility.yul\":10604:10646   */\n      0xffffffffffffffffffffffffffffffffffffffff\n        /* \"#utility.yul\":10597:10602   */\n      dup3\n        /* \"#utility.yul\":10593:10647   */\n      and\n        /* \"#utility.yul\":10582:10647   */\n      swap1\n      pop\n        /* \"#utility.yul\":10572:10653   */\n      swap2\n      swap1\n      pop\n      jump\t// out\n        /* \"#utility.yul\":10659:10736   */\n    tag_154:\n      0x00\n        /* \"#utility.yul\":10725:10730   */\n      dup2\n        /* \"#utility.yul\":10714:10730   */\n      swap1\n      pop\n        /* \"#utility.yul\":10704:10736   */\n      swap2\n      swap1\n      pop\n      jump\t// out\n        /* \"#utility.yul\":10742:10922   */\n    tag_178:\n        /* \"#utility.yul\":10790:10867   */\n      0x4e487b7100000000000000000000000000000000000000000000000000000000\n        /* \"#utility.yul\":10787:10788   */\n      0x00\n        /* \"#utility.yul\":10780:10868   */\n      mstore\n        /* \"#utility.yul\":10887:10891   */\n      0x41\n        /* \"#utility.yul\":10884:10885   */\n      0x04\n        /* \"#utility.yul\":10877:10892   */\n      mstore\n        /* \"#utility.yul\":10911:10915   */\n      0x24\n        /* \"#utility.yul\":10908:10909   */\n      0x00\n        /* \"#utility.yul\":10901:10916   */\n      revert\n        /* \"#utility.yul\":10928:11050   */\n    tag_83:\n        /* \"#utility.yul\":11001:11025   */\n      tag_201\n        /* \"#utility.yul\":11019:11024   */\n      dup2\n        /* \"#utility.yul\":11001:11025   */\n      tag_120\n      jump\t// in\n    tag_201:\n        /* \"#utility.yul\":10994:10999   */\n      dup2\n        /* \"#utility.yul\":10991:11026   */\n      eq\n        /* \"#utility.yul\":10981:10983   */\n      tag_202\n      jumpi\n        /* \"#utility.yul\":11040:11041   */\n      0x00\n        /* \"#utility.yul\":11037:11038   */\n      dup1\n        /* \"#utility.yul\":11030:11042   */\n      revert\n        /* \"#utility.yul\":10981:10983   */\n    tag_202:\n        /* \"#utility.yul\":10971:11050   */\n      pop\n      jump\t// out\n        /* \"#utility.yul\":11056:11172   */\n    tag_94:\n        /* \"#utility.yul\":11126:11147   */\n      tag_204\n        /* \"#utility.yul\":11141:11146   */\n      dup2\n        /* \"#utility.yul\":11126:11147   */\n      tag_151\n      jump\t// in\n    tag_204:\n        /* \"#utility.yul\":11119:11124   */\n      dup2\n        /* \"#utility.yul\":11116:11148   */\n      eq\n        /* \"#utility.yul\":11106:11108   */\n      tag_205\n      jumpi\n        /* \"#utility.yul\":11162:11163   */\n      0x00\n        /* \"#utility.yul\":11159:11160   */\n      dup1\n        /* \"#utility.yul\":11152:11164   */\n      revert\n        /* \"#utility.yul\":11106:11108   */\n    tag_205:\n        /* \"#utility.yul\":11096:11172   */\n      pop\n      jump\t// out\n        /* \"#utility.yul\":11178:11300   */\n    tag_97:\n        /* \"#utility.yul\":11251:11275   */\n      tag_207\n        /* \"#utility.yul\":11269:11274   */\n      dup2\n        /* \"#utility.yul\":11251:11275   */\n      tag_154\n      jump\t// in\n    tag_207:\n        /* \"#utility.yul\":11244:11249   */\n      dup2\n        /* \"#utility.yul\":11241:11276   */\n      eq\n        /* \"#utility.yul\":11231:11233   */\n      tag_208\n      jumpi\n        /* \"#utility.yul\":11290:11291   */\n      0x00\n        /* \"#utility.yul\":11287:11288   */\n      dup1\n        /* \"#utility.yul\":11280:11292   */\n      revert\n        /* \"#utility.yul\":11231:11233   */\n    tag_208:\n        /* \"#utility.yul\":11221:11300   */\n      pop\n      jump\t// out\n\n    auxdata: 0xa26469706673582212202d45ba924eef3a6303d679fb40240ec32fe2d63cb37edc49f5ddb5d7983d208664736f6c63430008000033\n}\n",
				"bytecode": {
					"linkReferences": {},
					"object": "608060405234801561001057600080fd5b50610a98806100206000396000f3fe608060405234801561001057600080fd5b50600436106100415760003560e01c80630ad3ad5814610046578063a87430ba14610069578063d8ac0ac01461009a575b600080fd5b61004e6100b6565b6040516100609695949392919061086a565b60405180910390f35b610083600480360381019061007e919061060c565b61026b565b604051610091929190610841565b60405180910390f35b6100b460048036038101906100af9190610635565b61028f565b005b6000806100c161037d565b6100c961037d565b6100d161037d565b6100d96103a0565b60008060003373ffffffffffffffffffffffffffffffffffffffff1673ffffffffffffffffffffffffffffffffffffffff1681526020019081526020016000209050806000015481600101548260020183600c01846016018560200183600a806020026040519081016040528092919082600a801561016d576020028201915b815481526020019060010190808311610159575b5050505050935082600a806020026040519081016040528092919082600a80156101ac576020028201915b815481526020019060010190808311610198575b5050505050925081600a806020026040519081016040528092919082600a80156101eb576020028201915b8154815260200190600101908083116101d7575b5050505050915080600a806020026040519081016040528092919082600a801561024f576020028201916000905b82829054906101000a900460ff161515815260200190600101906020826000010492830192600103820291508084116102195790505b5050505050905096509650965096509650965050909192939495565b60006020528060005260406000206000915090508060000154908060010154905082565b60008060003373ffffffffffffffffffffffffffffffffffffffff1673ffffffffffffffffffffffffffffffffffffffff1681526020019081526020016000209050868160000181905550858160010181905550848160020190600a6102f69291906103c3565b508381600c0190600a61030a9291906103c3565b50828160160190600a61031e9291906103c3565b50818160200190600a610332929190610403565b507feefe26cb513e538cf9cf968ce685e3c32ac19de4e9471c6362eda6f7f79765b233888787878760405161036c969594939291906107dc565b60405180910390a150505050505050565b604051806101400160405280600a90602082028036833780820191505090505090565b604051806101400160405280600a90602082028036833780820191505090505090565b82600a81019282156103f2579160200282015b828111156103f15782518255916020019190600101906103d6565b5b5090506103ff919061049c565b5090565b82600a601f0160209004810192821561048b5791602002820160005b8382111561045c57835183826101000a81548160ff021916908315150217905550926020019260010160208160000104928301926001030261041f565b80156104895782816101000a81549060ff021916905560010160208160000104928301926001030261045c565b505b509050610498919061049c565b5090565b5b808211156104b557600081600090555060010161049d565b5090565b60006104cc6104c784610900565b6108cf565b905080828560208602820111156104e257600080fd5b60005b8581101561051257816104f888826105e2565b8452602084019350602083019250506001810190506104e5565b5050509392505050565b600061052f61052a84610926565b6108cf565b9050808285602086028201111561054557600080fd5b60005b85811015610575578161055b88826105f7565b845260208401935060208301925050600181019050610548565b5050509392505050565b60008135905061058e81610a1d565b92915050565b600082601f8301126105a557600080fd5b600a6105b28482856104b9565b91505092915050565b600082601f8301126105cc57600080fd5b600a6105d984828561051c565b91505092915050565b6000813590506105f181610a34565b92915050565b60008135905061060681610a4b565b92915050565b60006020828403121561061e57600080fd5b600061062c8482850161057f565b91505092915050565b600080600080600080610540878903121561064f57600080fd5b600061065d89828a016105f7565b965050602061066e89828a016105f7565b955050604061067f89828a016105bb565b94505061018061069189828a016105bb565b9350506102c06106a389828a016105bb565b9250506104006106b589828a01610594565b9150509295509295509295565b60006106ce83836107af565b60208301905092915050565b60006106e683836107be565b60208301905092915050565b6106fb816109a6565b82525050565b61070a81610960565b6107148184610990565b925061071f8261094c565b8060005b8381101561075057815161073787826106c2565b965061074283610976565b925050600181019050610723565b505050505050565b6107618161096b565b61076b818461099b565b925061077682610956565b8060005b838110156107a757815161078e87826106da565b965061079983610983565b92505060018101905061077a565b505050505050565b6107b8816109b8565b82525050565b6107c7816109e4565b82525050565b6107d6816109e4565b82525050565b6000610540820190506107f260008301896106f2565b6107ff60208301886107cd565b61080c6040830187610758565b61081a610180830186610758565b6108286102c0830185610758565b610836610400830184610701565b979650505050505050565b600060408201905061085660008301856107cd565b61086360208301846107cd565b9392505050565b60006105408201905061088060008301896107cd565b61088d60208301886107cd565b61089a6040830187610758565b6108a8610180830186610758565b6108b66102c0830185610758565b6108c4610400830184610701565b979650505050505050565b6000604051905081810181811067ffffffffffffffff821117156108f6576108f56109ee565b5b8060405250919050565b600067ffffffffffffffff82111561091b5761091a6109ee565b5b602082029050919050565b600067ffffffffffffffff821115610941576109406109ee565b5b602082029050919050565b6000819050919050565b6000819050919050565b6000600a9050919050565b6000600a9050919050565b6000602082019050919050565b6000602082019050919050565b600081905092915050565b600081905092915050565b60006109b1826109c4565b9050919050565b60008115159050919050565b600073ffffffffffffffffffffffffffffffffffffffff82169050919050565b6000819050919050565b7f4e487b7100000000000000000000000000000000000000000000000000000000600052604160045260246000fd5b610a26816109a6565b8114610a3157600080fd5b50565b610a3d816109b8565b8114610a4857600080fd5b50565b610a54816109e4565b8114610a5f57600080fd5b5056fea26469706673582212202d45ba924eef3a6303d679fb40240ec32fe2d63cb37edc49f5ddb5d7983d208664736f6c63430008000033",
					"opcodes": "PUSH1 0x80 PUSH1 0x40 MSTORE CALLVALUE DUP1 ISZERO PUSH2 0x10 JUMPI PUSH1 0x0 DUP1 REVERT JUMPDEST POP PUSH2 0xA98 DUP1 PUSH2 0x20 PUSH1 0x0 CODECOPY PUSH1 0x0 RETURN INVALID PUSH1 0x80 PUSH1 0x40 MSTORE CALLVALUE DUP1 ISZERO PUSH2 0x10 JUMPI PUSH1 0x0 DUP1 REVERT JUMPDEST POP PUSH1 0x4 CALLDATASIZE LT PUSH2 0x41 JUMPI PUSH1 0x0 CALLDATALOAD PUSH1 0xE0 SHR DUP1 PUSH4 0xAD3AD58 EQ PUSH2 0x46 JUMPI DUP1 PUSH4 0xA87430BA EQ PUSH2 0x69 JUMPI DUP1 PUSH4 0xD8AC0AC0 EQ PUSH2 0x9A JUMPI JUMPDEST PUSH1 0x0 DUP1 REVERT JUMPDEST PUSH2 0x4E PUSH2 0xB6 JUMP JUMPDEST PUSH1 0x40 MLOAD PUSH2 0x60 SWAP7 SWAP6 SWAP5 SWAP4 SWAP3 SWAP2 SWAP1 PUSH2 0x86A JUMP JUMPDEST PUSH1 0x40 MLOAD DUP1 SWAP2 SUB SWAP1 RETURN JUMPDEST PUSH2 0x83 PUSH1 0x4 DUP1 CALLDATASIZE SUB DUP2 ADD SWAP1 PUSH2 0x7E SWAP2 SWAP1 PUSH2 0x60C JUMP JUMPDEST PUSH2 0x26B JUMP JUMPDEST PUSH1 0x40 MLOAD PUSH2 0x91 SWAP3 SWAP2 SWAP1 PUSH2 0x841 JUMP JUMPDEST PUSH1 0x40 MLOAD DUP1 SWAP2 SUB SWAP1 RETURN JUMPDEST PUSH2 0xB4 PUSH1 0x4 DUP1 CALLDATASIZE SUB DUP2 ADD SWAP1 PUSH2 0xAF SWAP2 SWAP1 PUSH2 0x635 JUMP JUMPDEST PUSH2 0x28F JUMP JUMPDEST STOP JUMPDEST PUSH1 0x0 DUP1 PUSH2 0xC1 PUSH2 0x37D JUMP JUMPDEST PUSH2 0xC9 PUSH2 0x37D JUMP JUMPDEST PUSH2 0xD1 PUSH2 0x37D JUMP JUMPDEST PUSH2 0xD9 PUSH2 0x3A0 JUMP JUMPDEST PUSH1 0x0 DUP1 PUSH1 0x0 CALLER PUSH20 0xFFFFFFFFFFFFFFFFFFFFFFFFFFFFFFFFFFFFFFFF AND PUSH20 0xFFFFFFFFFFFFFFFFFFFFFFFFFFFFFFFFFFFFFFFF AND DUP2 MSTORE PUSH1 0x20 ADD SWAP1 DUP2 MSTORE PUSH1 0x20 ADD PUSH1 0x0 KECCAK256 SWAP1 POP DUP1 PUSH1 0x0 ADD SLOAD DUP2 PUSH1 0x1 ADD SLOAD DUP3 PUSH1 0x2 ADD DUP4 PUSH1 0xC ADD DUP5 PUSH1 0x16 ADD DUP6 PUSH1 0x20 ADD DUP4 PUSH1 0xA DUP1 PUSH1 0x20 MUL PUSH1 0x40 MLOAD SWAP1 DUP2 ADD PUSH1 0x40 MSTORE DUP1 SWAP3 SWAP2 SWAP1 DUP3 PUSH1 0xA DUP1 ISZERO PUSH2 0x16D JUMPI PUSH1 0x20 MUL DUP3 ADD SWAP2 JUMPDEST DUP2 SLOAD DUP2 MSTORE PUSH1 0x20 ADD SWAP1 PUSH1 0x1 ADD SWAP1 DUP1 DUP4 GT PUSH2 0x159 JUMPI JUMPDEST POP POP POP POP POP SWAP4 POP DUP3 PUSH1 0xA DUP1 PUSH1 0x20 MUL PUSH1 0x40 MLOAD SWAP1 DUP2 ADD PUSH1 0x40 MSTORE DUP1 SWAP3 SWAP2 SWAP1 DUP3 PUSH1 0xA DUP1 ISZERO PUSH2 0x1AC JUMPI PUSH1 0x20 MUL DUP3 ADD SWAP2 JUMPDEST DUP2 SLOAD DUP2 MSTORE PUSH1 0x20 ADD SWAP1 PUSH1 0x1 ADD SWAP1 DUP1 DUP4 GT PUSH2 0x198 JUMPI JUMPDEST POP POP POP POP POP SWAP3 POP DUP2 PUSH1 0xA DUP1 PUSH1 0x20 MUL PUSH1 0x40 MLOAD SWAP1 DUP2 ADD PUSH1 0x40 MSTORE DUP1 SWAP3 SWAP2 SWAP1 DUP3 PUSH1 0xA DUP1 ISZERO PUSH2 0x1EB JUMPI PUSH1 0x20 MUL DUP3 ADD SWAP2 JUMPDEST DUP2 SLOAD DUP2 MSTORE PUSH1 0x20 ADD SWAP1 PUSH1 0x1 ADD SWAP1 DUP1 DUP4 GT PUSH2 0x1D7 JUMPI JUMPDEST POP POP POP POP POP SWAP2 POP DUP1 PUSH1 0xA DUP1 PUSH1 0x20 MUL PUSH1 0x40 MLOAD SWAP1 DUP2 ADD PUSH1 0x40 MSTORE DUP1 SWAP3 SWAP2 SWAP1 DUP3 PUSH1 0xA DUP1 ISZERO PUSH2 0x24F JUMPI PUSH1 0x20 MUL DUP3 ADD SWAP2 PUSH1 0x0 SWAP1 JUMPDEST DUP3 DUP3 SWAP1 SLOAD SWAP1 PUSH2 0x100 EXP SWAP1 DIV PUSH1 0xFF AND ISZERO ISZERO DUP2 MSTORE PUSH1 0x20 ADD SWAP1 PUSH1 0x1 ADD SWAP1 PUSH1 0x20 DUP3 PUSH1 0x0 ADD DIV SWAP3 DUP4 ADD SWAP3 PUSH1 0x1 SUB DUP3 MUL SWAP2 POP DUP1 DUP5 GT PUSH2 0x219 JUMPI SWAP1 POP JUMPDEST POP POP POP POP POP SWAP1 POP SWAP7 POP SWAP7 POP SWAP7 POP SWAP7 POP SWAP7 POP SWAP7 POP POP SWAP1 SWAP2 SWAP3 SWAP4 SWAP5 SWAP6 JUMP JUMPDEST PUSH1 0x0 PUSH1 0x20 MSTORE DUP1 PUSH1 0x0 MSTORE PUSH1 0x40 PUSH1 0x0 KECCAK256 PUSH1 0x0 SWAP2 POP SWAP1 POP DUP1 PUSH1 0x0 ADD SLOAD SWAP1 DUP1 PUSH1 0x1 ADD SLOAD SWAP1 POP DUP3 JUMP JUMPDEST PUSH1 0x0 DUP1 PUSH1 0x0 CALLER PUSH20 0xFFFFFFFFFFFFFFFFFFFFFFFFFFFFFFFFFFFFFFFF AND PUSH20 0xFFFFFFFFFFFFFFFFFFFFFFFFFFFFFFFFFFFFFFFF AND DUP2 MSTORE PUSH1 0x20 ADD SWAP1 DUP2 MSTORE PUSH1 0x20 ADD PUSH1 0x0 KECCAK256 SWAP1 POP DUP7 DUP2 PUSH1 0x0 ADD DUP2 SWAP1 SSTORE POP DUP6 DUP2 PUSH1 0x1 ADD DUP2 SWAP1 SSTORE POP DUP5 DUP2 PUSH1 0x2 ADD SWAP1 PUSH1 0xA PUSH2 0x2F6 SWAP3 SWAP2 SWAP1 PUSH2 0x3C3 JUMP JUMPDEST POP DUP4 DUP2 PUSH1 0xC ADD SWAP1 PUSH1 0xA PUSH2 0x30A SWAP3 SWAP2 SWAP1 PUSH2 0x3C3 JUMP JUMPDEST POP DUP3 DUP2 PUSH1 0x16 ADD SWAP1 PUSH1 0xA PUSH2 0x31E SWAP3 SWAP2 SWAP1 PUSH2 0x3C3 JUMP JUMPDEST POP DUP2 DUP2 PUSH1 0x20 ADD SWAP1 PUSH1 0xA PUSH2 0x332 SWAP3 SWAP2 SWAP1 PUSH2 0x403 JUMP JUMPDEST POP PUSH32 0xEEFE26CB513E538CF9CF968CE685E3C32AC19DE4E9471C6362EDA6F7F79765B2 CALLER DUP9 DUP8 DUP8 DUP8 DUP8 PUSH1 0x40 MLOAD PUSH2 0x36C SWAP7 SWAP6 SWAP5 SWAP4 SWAP3 SWAP2 SWAP1 PUSH2 0x7DC JUMP JUMPDEST PUSH1 0x40 MLOAD DUP1 SWAP2 SUB SWAP1 LOG1 POP POP POP POP POP POP POP JUMP JUMPDEST PUSH1 0x40 MLOAD DUP1 PUSH2 0x140 ADD PUSH1 0x40 MSTORE DUP1 PUSH1 0xA SWAP1 PUSH1 0x20 DUP3 MUL DUP1 CALLDATASIZE DUP4 CALLDATACOPY DUP1 DUP3 ADD SWAP2 POP POP SWAP1 POP POP SWAP1 JUMP JUMPDEST PUSH1 0x40 MLOAD DUP1 PUSH2 0x140 ADD PUSH1 0x40 MSTORE DUP1 PUSH1 0xA SWAP1 PUSH1 0x20 DUP3 MUL DUP1 CALLDATASIZE DUP4 CALLDATACOPY DUP1 DUP3 ADD SWAP2 POP POP SWAP1 POP POP SWAP1 JUMP JUMPDEST DUP3 PUSH1 0xA DUP2 ADD SWAP3 DUP3 ISZERO PUSH2 0x3F2 JUMPI SWAP2 PUSH1 0x20 MUL DUP3 ADD JUMPDEST DUP3 DUP2 GT ISZERO PUSH2 0x3F1 JUMPI DUP3 MLOAD DUP3 SSTORE SWAP2 PUSH1 0x20 ADD SWAP2 SWAP1 PUSH1 0x1 ADD SWAP1 PUSH2 0x3D6 JUMP JUMPDEST JUMPDEST POP SWAP1 POP PUSH2 0x3FF SWAP2 SWAP1 PUSH2 0x49C JUMP JUMPDEST POP SWAP1 JUMP JUMPDEST DUP3 PUSH1 0xA PUSH1 0x1F ADD PUSH1 0x20 SWAP1 DIV DUP2 ADD SWAP3 DUP3 ISZERO PUSH2 0x48B JUMPI SWAP2 PUSH1 0x20 MUL DUP3 ADD PUSH1 0x0 JUMPDEST DUP4 DUP3 GT ISZERO PUSH2 0x45C JUMPI DUP4 MLOAD DUP4 DUP3 PUSH2 0x100 EXP DUP2 SLOAD DUP2 PUSH1 0xFF MUL NOT AND SWAP1 DUP4 ISZERO ISZERO MUL OR SWAP1 SSTORE POP SWAP3 PUSH1 0x20 ADD SWAP3 PUSH1 0x1 ADD PUSH1 0x20 DUP2 PUSH1 0x0 ADD DIV SWAP3 DUP4 ADD SWAP3 PUSH1 0x1 SUB MUL PUSH2 0x41F JUMP JUMPDEST DUP1 ISZERO PUSH2 0x489 JUMPI DUP3 DUP2 PUSH2 0x100 EXP DUP2 SLOAD SWAP1 PUSH1 0xFF MUL NOT AND SWAP1 SSTORE PUSH1 0x1 ADD PUSH1 0x20 DUP2 PUSH1 0x0 ADD DIV SWAP3 DUP4 ADD SWAP3 PUSH1 0x1 SUB MUL PUSH2 0x45C JUMP JUMPDEST POP JUMPDEST POP SWAP1 POP PUSH2 0x498 SWAP2 SWAP1 PUSH2 0x49C JUMP JUMPDEST POP SWAP1 JUMP JUMPDEST JUMPDEST DUP1 DUP3 GT ISZERO PUSH2 0x4B5 JUMPI PUSH1 0x0 DUP2 PUSH1 0x0 SWAP1 SSTORE POP PUSH1 0x1 ADD PUSH2 0x49D JUMP JUMPDEST POP SWAP1 JUMP JUMPDEST PUSH1 0x0 PUSH2 0x4CC PUSH2 0x4C7 DUP5 PUSH2 0x900 JUMP JUMPDEST PUSH2 0x8CF JUMP JUMPDEST SWAP1 POP DUP1 DUP3 DUP6 PUSH1 0x20 DUP7 MUL DUP3 ADD GT ISZERO PUSH2 0x4E2 JUMPI PUSH1 0x0 DUP1 REVERT JUMPDEST PUSH1 0x0 JUMPDEST DUP6 DUP2 LT ISZERO PUSH2 0x512 JUMPI DUP2 PUSH2 0x4F8 DUP9 DUP3 PUSH2 0x5E2 JUMP JUMPDEST DUP5 MSTORE PUSH1 0x20 DUP5 ADD SWAP4 POP PUSH1 0x20 DUP4 ADD SWAP3 POP POP PUSH1 0x1 DUP2 ADD SWAP1 POP PUSH2 0x4E5 JUMP JUMPDEST POP POP POP SWAP4 SWAP3 POP POP POP JUMP JUMPDEST PUSH1 0x0 PUSH2 0x52F PUSH2 0x52A DUP5 PUSH2 0x926 JUMP JUMPDEST PUSH2 0x8CF JUMP JUMPDEST SWAP1 POP DUP1 DUP3 DUP6 PUSH1 0x20 DUP7 MUL DUP3 ADD GT ISZERO PUSH2 0x545 JUMPI PUSH1 0x0 DUP1 REVERT JUMPDEST PUSH1 0x0 JUMPDEST DUP6 DUP2 LT ISZERO PUSH2 0x575 JUMPI DUP2 PUSH2 0x55B DUP9 DUP3 PUSH2 0x5F7 JUMP JUMPDEST DUP5 MSTORE PUSH1 0x20 DUP5 ADD SWAP4 POP PUSH1 0x20 DUP4 ADD SWAP3 POP POP PUSH1 0x1 DUP2 ADD SWAP1 POP PUSH2 0x548 JUMP JUMPDEST POP POP POP SWAP4 SWAP3 POP POP POP JUMP JUMPDEST PUSH1 0x0 DUP2 CALLDATALOAD SWAP1 POP PUSH2 0x58E DUP2 PUSH2 0xA1D JUMP JUMPDEST SWAP3 SWAP2 POP POP JUMP JUMPDEST PUSH1 0x0 DUP3 PUSH1 0x1F DUP4 ADD SLT PUSH2 0x5A5 JUMPI PUSH1 0x0 DUP1 REVERT JUMPDEST PUSH1 0xA PUSH2 0x5B2 DUP5 DUP3 DUP6 PUSH2 0x4B9 JUMP JUMPDEST SWAP2 POP POP SWAP3 SWAP2 POP POP JUMP JUMPDEST PUSH1 0x0 DUP3 PUSH1 0x1F DUP4 ADD SLT PUSH2 0x5CC JUMPI PUSH1 0x0 DUP1 REVERT JUMPDEST PUSH1 0xA PUSH2 0x5D9 DUP5 DUP3 DUP6 PUSH2 0x51C JUMP JUMPDEST SWAP2 POP POP SWAP3 SWAP2 POP POP JUMP JUMPDEST PUSH1 0x0 DUP2 CALLDATALOAD SWAP1 POP PUSH2 0x5F1 DUP2 PUSH2 0xA34 JUMP JUMPDEST SWAP3 SWAP2 POP POP JUMP JUMPDEST PUSH1 0x0 DUP2 CALLDATALOAD SWAP1 POP PUSH2 0x606 DUP2 PUSH2 0xA4B JUMP JUMPDEST SWAP3 SWAP2 POP POP JUMP JUMPDEST PUSH1 0x0 PUSH1 0x20 DUP3 DUP5 SUB SLT ISZERO PUSH2 0x61E JUMPI PUSH1 0x0 DUP1 REVERT JUMPDEST PUSH1 0x0 PUSH2 0x62C DUP5 DUP3 DUP6 ADD PUSH2 0x57F JUMP JUMPDEST SWAP2 POP POP SWAP3 SWAP2 POP POP JUMP JUMPDEST PUSH1 0x0 DUP1 PUSH1 0x0 DUP1 PUSH1 0x0 DUP1 PUSH2 0x540 DUP8 DUP10 SUB SLT ISZERO PUSH2 0x64F JUMPI PUSH1 0x0 DUP1 REVERT JUMPDEST PUSH1 0x0 PUSH2 0x65D DUP10 DUP3 DUP11 ADD PUSH2 0x5F7 JUMP JUMPDEST SWAP7 POP POP PUSH1 0x20 PUSH2 0x66E DUP10 DUP3 DUP11 ADD PUSH2 0x5F7 JUMP JUMPDEST SWAP6 POP POP PUSH1 0x40 PUSH2 0x67F DUP10 DUP3 DUP11 ADD PUSH2 0x5BB JUMP JUMPDEST SWAP5 POP POP PUSH2 0x180 PUSH2 0x691 DUP10 DUP3 DUP11 ADD PUSH2 0x5BB JUMP JUMPDEST SWAP4 POP POP PUSH2 0x2C0 PUSH2 0x6A3 DUP10 DUP3 DUP11 ADD PUSH2 0x5BB JUMP JUMPDEST SWAP3 POP POP PUSH2 0x400 PUSH2 0x6B5 DUP10 DUP3 DUP11 ADD PUSH2 0x594 JUMP JUMPDEST SWAP2 POP POP SWAP3 SWAP6 POP SWAP3 SWAP6 POP SWAP3 SWAP6 JUMP JUMPDEST PUSH1 0x0 PUSH2 0x6CE DUP4 DUP4 PUSH2 0x7AF JUMP JUMPDEST PUSH1 0x20 DUP4 ADD SWAP1 POP SWAP3 SWAP2 POP POP JUMP JUMPDEST PUSH1 0x0 PUSH2 0x6E6 DUP4 DUP4 PUSH2 0x7BE JUMP JUMPDEST PUSH1 0x20 DUP4 ADD SWAP1 POP SWAP3 SWAP2 POP POP JUMP JUMPDEST PUSH2 0x6FB DUP2 PUSH2 0x9A6 JUMP JUMPDEST DUP3 MSTORE POP POP JUMP JUMPDEST PUSH2 0x70A DUP2 PUSH2 0x960 JUMP JUMPDEST PUSH2 0x714 DUP2 DUP5 PUSH2 0x990 JUMP JUMPDEST SWAP3 POP PUSH2 0x71F DUP3 PUSH2 0x94C JUMP JUMPDEST DUP1 PUSH1 0x0 JUMPDEST DUP4 DUP2 LT ISZERO PUSH2 0x750 JUMPI DUP2 MLOAD PUSH2 0x737 DUP8 DUP3 PUSH2 0x6C2 JUMP JUMPDEST SWAP7 POP PUSH2 0x742 DUP4 PUSH2 0x976 JUMP JUMPDEST SWAP3 POP POP PUSH1 0x1 DUP2 ADD SWAP1 POP PUSH2 0x723 JUMP JUMPDEST POP POP POP POP POP POP JUMP JUMPDEST PUSH2 0x761 DUP2 PUSH2 0x96B JUMP JUMPDEST PUSH2 0x76B DUP2 DUP5 PUSH2 0x99B JUMP JUMPDEST SWAP3 POP PUSH2 0x776 DUP3 PUSH2 0x956 JUMP JUMPDEST DUP1 PUSH1 0x0 JUMPDEST DUP4 DUP2 LT ISZERO PUSH2 0x7A7 JUMPI DUP2 MLOAD PUSH2 0x78E DUP8 DUP3 PUSH2 0x6DA JUMP JUMPDEST SWAP7 POP PUSH2 0x799 DUP4 PUSH2 0x983 JUMP JUMPDEST SWAP3 POP POP PUSH1 0x1 DUP2 ADD SWAP1 POP PUSH2 0x77A JUMP JUMPDEST POP POP POP POP POP POP JUMP JUMPDEST PUSH2 0x7B8 DUP2 PUSH2 0x9B8 JUMP JUMPDEST DUP3 MSTORE POP POP JUMP JUMPDEST PUSH2 0x7C7 DUP2 PUSH2 0x9E4 JUMP JUMPDEST DUP3 MSTORE POP POP JUMP JUMPDEST PUSH2 0x7D6 DUP2 PUSH2 0x9E4 JUMP JUMPDEST DUP3 MSTORE POP POP JUMP JUMPDEST PUSH1 0x0 PUSH2 0x540 DUP3 ADD SWAP1 POP PUSH2 0x7F2 PUSH1 0x0 DUP4 ADD DUP10 PUSH2 0x6F2 JUMP JUMPDEST PUSH2 0x7FF PUSH1 0x20 DUP4 ADD DUP9 PUSH2 0x7CD JUMP JUMPDEST PUSH2 0x80C PUSH1 0x40 DUP4 ADD DUP8 PUSH2 0x758 JUMP JUMPDEST PUSH2 0x81A PUSH2 0x180 DUP4 ADD DUP7 PUSH2 0x758 JUMP JUMPDEST PUSH2 0x828 PUSH2 0x2C0 DUP4 ADD DUP6 PUSH2 0x758 JUMP JUMPDEST PUSH2 0x836 PUSH2 0x400 DUP4 ADD DUP5 PUSH2 0x701 JUMP JUMPDEST SWAP8 SWAP7 POP POP POP POP POP POP POP JUMP JUMPDEST PUSH1 0x0 PUSH1 0x40 DUP3 ADD SWAP1 POP PUSH2 0x856 PUSH1 0x0 DUP4 ADD DUP6 PUSH2 0x7CD JUMP JUMPDEST PUSH2 0x863 PUSH1 0x20 DUP4 ADD DUP5 PUSH2 0x7CD JUMP JUMPDEST SWAP4 SWAP3 POP POP POP JUMP JUMPDEST PUSH1 0x0 PUSH2 0x540 DUP3 ADD SWAP1 POP PUSH2 0x880 PUSH1 0x0 DUP4 ADD DUP10 PUSH2 0x7CD JUMP JUMPDEST PUSH2 0x88D PUSH1 0x20 DUP4 ADD DUP9 PUSH2 0x7CD JUMP JUMPDEST PUSH2 0x89A PUSH1 0x40 DUP4 ADD DUP8 PUSH2 0x758 JUMP JUMPDEST PUSH2 0x8A8 PUSH2 0x180 DUP4 ADD DUP7 PUSH2 0x758 JUMP JUMPDEST PUSH2 0x8B6 PUSH2 0x2C0 DUP4 ADD DUP6 PUSH2 0x758 JUMP JUMPDEST PUSH2 0x8C4 PUSH2 0x400 DUP4 ADD DUP5 PUSH2 0x701 JUMP JUMPDEST SWAP8 SWAP7 POP POP POP POP POP POP POP JUMP JUMPDEST PUSH1 0x0 PUSH1 0x40 MLOAD SWAP1 POP DUP2 DUP2 ADD DUP2 DUP2 LT PUSH8 0xFFFFFFFFFFFFFFFF DUP3 GT OR ISZERO PUSH2 0x8F6 JUMPI PUSH2 0x8F5 PUSH2 0x9EE JUMP JUMPDEST JUMPDEST DUP1 PUSH1 0x40 MSTORE POP SWAP2 SWAP1 POP JUMP JUMPDEST PUSH1 0x0 PUSH8 0xFFFFFFFFFFFFFFFF DUP3 GT ISZERO PUSH2 0x91B JUMPI PUSH2 0x91A PUSH2 0x9EE JUMP JUMPDEST JUMPDEST PUSH1 0x20 DUP3 MUL SWAP1 POP SWAP2 SWAP1 POP JUMP JUMPDEST PUSH1 0x0 PUSH8 0xFFFFFFFFFFFFFFFF DUP3 GT ISZERO PUSH2 0x941 JUMPI PUSH2 0x940 PUSH2 0x9EE JUMP JUMPDEST JUMPDEST PUSH1 0x20 DUP3 MUL SWAP1 POP SWAP2 SWAP1 POP JUMP JUMPDEST PUSH1 0x0 DUP2 SWAP1 POP SWAP2 SWAP1 POP JUMP JUMPDEST PUSH1 0x0 DUP2 SWAP1 POP SWAP2 SWAP1 POP JUMP JUMPDEST PUSH1 0x0 PUSH1 0xA SWAP1 POP SWAP2 SWAP1 POP JUMP JUMPDEST PUSH1 0x0 PUSH1 0xA SWAP1 POP SWAP2 SWAP1 POP JUMP JUMPDEST PUSH1 0x0 PUSH1 0x20 DUP3 ADD SWAP1 POP SWAP2 SWAP1 POP JUMP JUMPDEST PUSH1 0x0 PUSH1 0x20 DUP3 ADD SWAP1 POP SWAP2 SWAP1 POP JUMP JUMPDEST PUSH1 0x0 DUP2 SWAP1 POP SWAP3 SWAP2 POP POP JUMP JUMPDEST PUSH1 0x0 DUP2 SWAP1 POP SWAP3 SWAP2 POP POP JUMP JUMPDEST PUSH1 0x0 PUSH2 0x9B1 DUP3 PUSH2 0x9C4 JUMP JUMPDEST SWAP1 POP SWAP2 SWAP1 POP JUMP JUMPDEST PUSH1 0x0 DUP2 ISZERO ISZERO SWAP1 POP SWAP2 SWAP1 POP JUMP JUMPDEST PUSH1 0x0 PUSH20 0xFFFFFFFFFFFFFFFFFFFFFFFFFFFFFFFFFFFFFFFF DUP3 AND SWAP1 POP SWAP2 SWAP1 POP JUMP JUMPDEST PUSH1 0x0 DUP2 SWAP1 POP SWAP2 SWAP1 POP JUMP JUMPDEST PUSH32 0x4E487B7100000000000000000000000000000000000000000000000000000000 PUSH1 0x0 MSTORE PUSH1 0x41 PUSH1 0x4 MSTORE PUSH1 0x24 PUSH1 0x0 REVERT JUMPDEST PUSH2 0xA26 DUP2 PUSH2 0x9A6 JUMP JUMPDEST DUP2 EQ PUSH2 0xA31 JUMPI PUSH1 0x0 DUP1 REVERT JUMPDEST POP JUMP JUMPDEST PUSH2 0xA3D DUP2 PUSH2 0x9B8 JUMP JUMPDEST DUP2 EQ PUSH2 0xA48 JUMPI PUSH1 0x0 DUP1 REVERT JUMPDEST POP JUMP JUMPDEST PUSH2 0xA54 DUP2 PUSH2 0x9E4 JUMP JUMPDEST DUP2 EQ PUSH2 0xA5F JUMPI PUSH1 0x0 DUP1 REVERT JUMPDEST POP JUMP INVALID LOG2 PUSH5 0x6970667358 0x22 SLT KECCAK256 0x2D GASLIMIT 0xBA SWAP3 0x4E 0xEF GASPRICE PUSH4 0x3D679FB BLOCKHASH 0x24 0xE 0xC3 0x2F 0xE2 0xD6 EXTCODECOPY 0xB3 PUSH31 0xDC49F5DDB5D7983D208664736F6C6343000800003300000000000000000000 "
				},
				"gasEstimates": {
					"creation": {
						"codeDepositCost": "542400",
						"executionCost": "575",
						"totalCost": "542975"
					},
					"external": {
						"loadProgress()": "infinite",
						"saveProgress(uint256,uint256,uint256[10],uint256[10],uint256[10],bool[10])": "infinite",
						"users(address)": "infinite"
					}
				},
				"methodIdentifiers": {
					"loadProgress()": "0ad3ad58",
					"saveProgress(uint256,uint256,uint256[10],uint256[10],uint256[10],bool[10])": "d8ac0ac0",
					"users(address)": "a87430ba"
				}
			},
			"storageLayout": {
				"storage": [
					{
						"astId": 27,
						"contract": "BTTC_loadsave.sol:IdleTronProgress",
						"label": "users",
						"offset": 0,
						"slot": "0",
						"type": "t_mapping(t_address,t_struct(User)22_storage)"
					}
				],
				"types": {
					"t_address": {
						"encoding": "inplace",
						"label": "address",
						"numberOfBytes": "20"
					},
					"t_array(t_bool)10_storage": {
						"base": "t_bool",
						"encoding": "inplace",
						"label": "bool[10]",
						"numberOfBytes": "32"
					},
					"t_array(t_uint256)10_storage": {
						"base": "t_uint256",
						"encoding": "inplace",
						"label": "uint256[10]",
						"numberOfBytes": "320"
					},
					"t_bool": {
						"encoding": "inplace",
						"label": "bool",
						"numberOfBytes": "1"
					},
					"t_mapping(t_address,t_struct(User)22_storage)": {
						"encoding": "mapping",
						"key": "t_address",
						"label": "mapping(address => struct IdleTronProgress.User)",
						"numberOfBytes": "32",
						"value": "t_struct(User)22_storage"
					},
					"t_struct(User)22_storage": {
						"encoding": "inplace",
						"label": "struct IdleTronProgress.User",
						"members": [
							{
								"astId": 3,
								"contract": "BTTC_loadsave.sol:IdleTronProgress",
								"label": "totalCoins",
								"offset": 0,
								"slot": "0",
								"type": "t_uint256"
							},
							{
								"astId": 5,
								"contract": "BTTC_loadsave.sol:IdleTronProgress",
								"label": "coinsPerSecond",
								"offset": 0,
								"slot": "1",
								"type": "t_uint256"
							},
							{
								"astId": 9,
								"contract": "BTTC_loadsave.sol:IdleTronProgress",
								"label": "producerAmounts",
								"offset": 0,
								"slot": "2",
								"type": "t_array(t_uint256)10_storage"
							},
							{
								"astId": 13,
								"contract": "BTTC_loadsave.sol:IdleTronProgress",
								"label": "producerCosts",
								"offset": 0,
								"slot": "12",
								"type": "t_array(t_uint256)10_storage"
							},
							{
								"astId": 17,
								"contract": "BTTC_loadsave.sol:IdleTronProgress",
								"label": "producerRevenues",
								"offset": 0,
								"slot": "22",
								"type": "t_array(t_uint256)10_storage"
							},
							{
								"astId": 21,
								"contract": "BTTC_loadsave.sol:IdleTronProgress",
								"label": "managerStatuses",
								"offset": 0,
								"slot": "32",
								"type": "t_array(t_bool)10_storage"
							}
						],
						"numberOfBytes": "1056"
					},
					"t_uint256": {
						"encoding": "inplace",
						"label": "uint256",
						"numberOfBytes": "32"
					}
				}
			},
			"userdoc": {
				"kind": "user",
				"methods": {},
				"version": 1
			}
		}
	}
}