{
	"BTTC_store_increment.sol": {
		"ProducerBoost": {
			"abi": [
				{
					"anonymous": false,
					"inputs": [
						{
							"indexed": true,
							"internalType": "address",
							"name": "user",
							"type": "address"
						},
						{
							"indexed": false,
							"internalType": "uint256",
							"name": "producerIndex",
							"type": "uint256"
						},
						{
							"indexed": false,
							"internalType": "uint256",
							"name": "boostAmount",
							"type": "uint256"
						}
					],
					"name": "ProducerBoosted",
					"type": "event"
				},
				{
					"inputs": [
						{
							"internalType": "uint256",
							"name": "producerIndex",
							"type": "uint256"
						},
						{
							"internalType": "uint256",
							"name": "boostAmount",
							"type": "uint256"
						}
					],
					"name": "boostProducer",
					"outputs": [],
					"stateMutability": "nonpayable",
					"type": "function"
				}
			],
			"devdoc": {
				"kind": "dev",
				"methods": {},
				"version": 1
			},
			"evm": {
				"assembly": "    /* \"BTTC_store_increment.sol\":60:492  contract ProducerBoost {\r... */\n  mstore(0x40, 0x80)\n  callvalue\n  dup1\n  iszero\n  tag_1\n  jumpi\n  0x00\n  dup1\n  revert\ntag_1:\n  pop\n  dataSize(sub_0)\n  dup1\n  dataOffset(sub_0)\n  0x00\n  codecopy\n  0x00\n  return\nstop\n\nsub_0: assembly {\n        /* \"BTTC_store_increment.sol\":60:492  contract ProducerBoost {\r... */\n      mstore(0x40, 0x80)\n      callvalue\n      dup1\n      iszero\n      tag_1\n      jumpi\n      0x00\n      dup1\n      revert\n    tag_1:\n      pop\n      jumpi(tag_2, lt(calldatasize, 0x04))\n      shr(0xe0, calldataload(0x00))\n      dup1\n      0x9a8f6705\n      eq\n      tag_3\n      jumpi\n    tag_2:\n      0x00\n      dup1\n      revert\n        /* \"BTTC_store_increment.sol\":269:489  function boostProducer(uint256 producerIndex, uint256 boostAmount) public {\r... */\n    tag_3:\n      tag_4\n      0x04\n      dup1\n      calldatasize\n      sub\n      dup2\n      add\n      swap1\n      tag_5\n      swap2\n      swap1\n      tag_6\n      jump\t// in\n    tag_5:\n      tag_7\n      jump\t// in\n    tag_4:\n      stop\n    tag_7:\n        /* \"BTTC_store_increment.sol\":442:452  msg.sender */\n      caller\n        /* \"BTTC_store_increment.sol\":426:481  ProducerBoosted(msg.sender, producerIndex, boostAmount) */\n      0xffffffffffffffffffffffffffffffffffffffff\n      and\n      0xad2f608d38d31489bfc7009703847dff76fc835f72b10121830d7065098b4896\n        /* \"BTTC_store_increment.sol\":454:467  producerIndex */\n      dup4\n        /* \"BTTC_store_increment.sol\":469:480  boostAmount */\n      dup4\n        /* \"BTTC_store_increment.sol\":426:481  ProducerBoosted(msg.sender, producerIndex, boostAmount) */\n      mload(0x40)\n      tag_9\n      swap3\n      swap2\n      swap1\n      tag_10\n      jump\t// in\n    tag_9:\n      mload(0x40)\n      dup1\n      swap2\n      sub\n      swap1\n      log2\n        /* \"BTTC_store_increment.sol\":269:489  function boostProducer(uint256 producerIndex, uint256 boostAmount) public {\r... */\n      pop\n      pop\n      jump\t// out\n        /* \"#utility.yul\":7:146   */\n    tag_12:\n      0x00\n        /* \"#utility.yul\":91:97   */\n      dup2\n        /* \"#utility.yul\":78:98   */\n      calldataload\n        /* \"#utility.yul\":69:98   */\n      swap1\n      pop\n        /* \"#utility.yul\":107:140   */\n      tag_14\n        /* \"#utility.yul\":134:139   */\n      dup2\n        /* \"#utility.yul\":107:140   */\n      tag_15\n      jump\t// in\n    tag_14:\n        /* \"#utility.yul\":59:146   */\n      swap3\n      swap2\n      pop\n      pop\n      jump\t// out\n        /* \"#utility.yul\":152:559   */\n    tag_6:\n      0x00\n      dup1\n        /* \"#utility.yul\":277:279   */\n      0x40\n        /* \"#utility.yul\":265:274   */\n      dup4\n        /* \"#utility.yul\":256:263   */\n      dup6\n        /* \"#utility.yul\":252:275   */\n      sub\n        /* \"#utility.yul\":248:280   */\n      slt\n        /* \"#utility.yul\":245:247   */\n      iszero\n      tag_17\n      jumpi\n        /* \"#utility.yul\":293:294   */\n      0x00\n        /* \"#utility.yul\":290:291   */\n      dup1\n        /* \"#utility.yul\":283:295   */\n      revert\n        /* \"#utility.yul\":245:247   */\n    tag_17:\n        /* \"#utility.yul\":336:337   */\n      0x00\n        /* \"#utility.yul\":361:414   */\n      tag_18\n        /* \"#utility.yul\":406:413   */\n      dup6\n        /* \"#utility.yul\":397:403   */\n      dup3\n        /* \"#utility.yul\":386:395   */\n      dup7\n        /* \"#utility.yul\":382:404   */\n      add\n        /* \"#utility.yul\":361:414   */\n      tag_12\n      jump\t// in\n    tag_18:\n        /* \"#utility.yul\":351:414   */\n      swap3\n      pop\n        /* \"#utility.yul\":307:424   */\n      pop\n        /* \"#utility.yul\":463:465   */\n      0x20\n        /* \"#utility.yul\":489:542   */\n      tag_19\n        /* \"#utility.yul\":534:541   */\n      dup6\n        /* \"#utility.yul\":525:531   */\n      dup3\n        /* \"#utility.yul\":514:523   */\n      dup7\n        /* \"#utility.yul\":510:532   */\n      add\n        /* \"#utility.yul\":489:542   */\n      tag_12\n      jump\t// in\n    tag_19:\n        /* \"#utility.yul\":479:542   */\n      swap2\n      pop\n        /* \"#utility.yul\":434:552   */\n      pop\n        /* \"#utility.yul\":235:559   */\n      swap3\n      pop\n      swap3\n      swap1\n      pop\n      jump\t// out\n        /* \"#utility.yul\":565:683   */\n    tag_20:\n        /* \"#utility.yul\":652:676   */\n      tag_22\n        /* \"#utility.yul\":670:675   */\n      dup2\n        /* \"#utility.yul\":652:676   */\n      tag_23\n      jump\t// in\n    tag_22:\n        /* \"#utility.yul\":647:650   */\n      dup3\n        /* \"#utility.yul\":640:677   */\n      mstore\n        /* \"#utility.yul\":630:683   */\n      pop\n      pop\n      jump\t// out\n        /* \"#utility.yul\":689:1021   */\n    tag_10:\n      0x00\n        /* \"#utility.yul\":848:850   */\n      0x40\n        /* \"#utility.yul\":837:846   */\n      dup3\n        /* \"#utility.yul\":833:851   */\n      add\n        /* \"#utility.yul\":825:851   */\n      swap1\n      pop\n        /* \"#utility.yul\":861:932   */\n      tag_25\n        /* \"#utility.yul\":929:930   */\n      0x00\n        /* \"#utility.yul\":918:927   */\n      dup4\n        /* \"#utility.yul\":914:931   */\n      add\n        /* \"#utility.yul\":905:911   */\n      dup6\n        /* \"#utility.yul\":861:932   */\n      tag_20\n      jump\t// in\n    tag_25:\n        /* \"#utility.yul\":942:1014   */\n      tag_26\n        /* \"#utility.yul\":1010:1012   */\n      0x20\n        /* \"#utility.yul\":999:1008   */\n      dup4\n        /* \"#utility.yul\":995:1013   */\n      add\n        /* \"#utility.yul\":986:992   */\n      dup5\n        /* \"#utility.yul\":942:1014   */\n      tag_20\n      jump\t// in\n    tag_26:\n        /* \"#utility.yul\":815:1021   */\n      swap4\n      swap3\n      pop\n      pop\n      pop\n      jump\t// out\n        /* \"#utility.yul\":1027:1104   */\n    tag_23:\n      0x00\n        /* \"#utility.yul\":1093:1098   */\n      dup2\n        /* \"#utility.yul\":1082:1098   */\n      swap1\n      pop\n        /* \"#utility.yul\":1072:1104   */\n      swap2\n      swap1\n      pop\n      jump\t// out\n        /* \"#utility.yul\":1110:1232   */\n    tag_15:\n        /* \"#utility.yul\":1183:1207   */\n      tag_29\n        /* \"#utility.yul\":1201:1206   */\n      dup2\n        /* \"#utility.yul\":1183:1207   */\n      tag_23\n      jump\t// in\n    tag_29:\n        /* \"#utility.yul\":1176:1181   */\n      dup2\n        /* \"#utility.yul\":1173:1208   */\n      eq\n        /* \"#utility.yul\":1163:1165   */\n      tag_30\n      jumpi\n        /* \"#utility.yul\":1222:1223   */\n      0x00\n        /* \"#utility.yul\":1219:1220   */\n      dup1\n        /* \"#utility.yul\":1212:1224   */\n      revert\n        /* \"#utility.yul\":1163:1165   */\n    tag_30:\n        /* \"#utility.yul\":1153:1232   */\n      pop\n      jump\t// out\n\n    auxdata: 0xa26469706673582212208e385e227bac6b17d55a8259ab6d10f6b2ad9e374fa34615cc18b632c4c3437764736f6c63430008000033\n}\n",
				"bytecode": {
					"linkReferences": {},
					"object": "608060405234801561001057600080fd5b50610180806100206000396000f3fe608060405234801561001057600080fd5b506004361061002b5760003560e01c80639a8f670514610030575b600080fd5b61004a600480360381019061004591906100b5565b61004c565b005b3373ffffffffffffffffffffffffffffffffffffffff167fad2f608d38d31489bfc7009703847dff76fc835f72b10121830d7065098b48968383604051610094929190610100565b60405180910390a25050565b6000813590506100af81610133565b92915050565b600080604083850312156100c857600080fd5b60006100d6858286016100a0565b92505060206100e7858286016100a0565b9150509250929050565b6100fa81610129565b82525050565b600060408201905061011560008301856100f1565b61012260208301846100f1565b9392505050565b6000819050919050565b61013c81610129565b811461014757600080fd5b5056fea26469706673582212208e385e227bac6b17d55a8259ab6d10f6b2ad9e374fa34615cc18b632c4c3437764736f6c63430008000033",
					"opcodes": "PUSH1 0x80 PUSH1 0x40 MSTORE CALLVALUE DUP1 ISZERO PUSH2 0x10 JUMPI PUSH1 0x0 DUP1 REVERT JUMPDEST POP PUSH2 0x180 DUP1 PUSH2 0x20 PUSH1 0x0 CODECOPY PUSH1 0x0 RETURN INVALID PUSH1 0x80 PUSH1 0x40 MSTORE CALLVALUE DUP1 ISZERO PUSH2 0x10 JUMPI PUSH1 0x0 DUP1 REVERT JUMPDEST POP PUSH1 0x4 CALLDATASIZE LT PUSH2 0x2B JUMPI PUSH1 0x0 CALLDATALOAD PUSH1 0xE0 SHR DUP1 PUSH4 0x9A8F6705 EQ PUSH2 0x30 JUMPI JUMPDEST PUSH1 0x0 DUP1 REVERT JUMPDEST PUSH2 0x4A PUSH1 0x4 DUP1 CALLDATASIZE SUB DUP2 ADD SWAP1 PUSH2 0x45 SWAP2 SWAP1 PUSH2 0xB5 JUMP JUMPDEST PUSH2 0x4C JUMP JUMPDEST STOP JUMPDEST CALLER PUSH20 0xFFFFFFFFFFFFFFFFFFFFFFFFFFFFFFFFFFFFFFFF AND PUSH32 0xAD2F608D38D31489BFC7009703847DFF76FC835F72B10121830D7065098B4896 DUP4 DUP4 PUSH1 0x40 MLOAD PUSH2 0x94 SWAP3 SWAP2 SWAP1 PUSH2 0x100 JUMP JUMPDEST PUSH1 0x40 MLOAD DUP1 SWAP2 SUB SWAP1 LOG2 POP POP JUMP JUMPDEST PUSH1 0x0 DUP2 CALLDATALOAD SWAP1 POP PUSH2 0xAF DUP2 PUSH2 0x133 JUMP JUMPDEST SWAP3 SWAP2 POP POP JUMP JUMPDEST PUSH1 0x0 DUP1 PUSH1 0x40 DUP4 DUP6 SUB SLT ISZERO PUSH2 0xC8 JUMPI PUSH1 0x0 DUP1 REVERT JUMPDEST PUSH1 0x0 PUSH2 0xD6 DUP6 DUP3 DUP7 ADD PUSH2 0xA0 JUMP JUMPDEST SWAP3 POP POP PUSH1 0x20 PUSH2 0xE7 DUP6 DUP3 DUP7 ADD PUSH2 0xA0 JUMP JUMPDEST SWAP2 POP POP SWAP3 POP SWAP3 SWAP1 POP JUMP JUMPDEST PUSH2 0xFA DUP2 PUSH2 0x129 JUMP JUMPDEST DUP3 MSTORE POP POP JUMP JUMPDEST PUSH1 0x0 PUSH1 0x40 DUP3 ADD SWAP1 POP PUSH2 0x115 PUSH1 0x0 DUP4 ADD DUP6 PUSH2 0xF1 JUMP JUMPDEST PUSH2 0x122 PUSH1 0x20 DUP4 ADD DUP5 PUSH2 0xF1 JUMP JUMPDEST SWAP4 SWAP3 POP POP POP JUMP JUMPDEST PUSH1 0x0 DUP2 SWAP1 POP SWAP2 SWAP1 POP JUMP JUMPDEST PUSH2 0x13C DUP2 PUSH2 0x129 JUMP JUMPDEST DUP2 EQ PUSH2 0x147 JUMPI PUSH1 0x0 DUP1 REVERT JUMPDEST POP JUMP INVALID LOG2 PUSH5 0x6970667358 0x22 SLT KECCAK256 DUP15 CODESIZE 0x5E 0x22 PUSH28 0xAC6B17D55A8259AB6D10F6B2AD9E374FA34615CC18B632C4C3437764 PUSH20 0x6F6C634300080000330000000000000000000000 "
				},
				"gasEstimates": {
					"creation": {
						"codeDepositCost": "76800",
						"executionCost": "123",
						"totalCost": "76923"
					},
					"external": {
						"boostProducer(uint256,uint256)": "infinite"
					}
				},
				"methodIdentifiers": {
					"boostProducer(uint256,uint256)": "9a8f6705"
				}
			},
			"storageLayout": {
				"storage": [],
				"types": null
			},
			"userdoc": {
				"kind": "user",
				"methods": {},
				"version": 1
			}
		}
	}
}